:020000040802F0
:1000000088270120C1010208951C03084D930208AE
:10001000C118030851170208A1C40308000000001A
:100020000000000000000000000000000953030869
:10003000112F020800000000593A03082166030846
:10004000DB010208DB010208DB010208DB01020818
:10005000DB010208DB010208DB010208A939020802
:10006000DB010208DB010208DB010208DB010208F8
:10007000DB010208DB010208DB010208DB010208E8
:10008000DB010208DB010208DB010208DB010208D8
:10009000DB010208DB010208DB010208DB010208C8
:1000A000DB010208DB010208DB010208DB010208B8
:1000B000A9690308DB010208BD690308DB01020826
:1000C000DB010208DB010208DB010208DB01020898
:1000D000DB0102081D7B0308217B0308237B030847
:1000E000DB010208DB010208DB010208DB01020878
:1000F000DB010208DB010208DB010208DB01020868
:10010000DB010208DB010208DB010208DB01020857
:10011000DB010208DB010208DB010208DB01020847
:10012000DB010208DB010208DB010208DB01020837
:10013000DB010208DB010208DB010208DB01020827
:10014000DB010208DB010208DB0102087D1E030857
:10015000DB010208DB010208DB010208DB01020807
:10016000DB010208DB010208DB010208DB010208F7
:10017000DB010208DB010208DB010208DB010208E7
:10018000DB010208DB010208DB010208DB010208D7
:10019000DB010208DB010208DB010208DB010208C7
:1001A0009DD50208DB01020871260208DFF80CD099
:1001B00000F02AFD00480047D1FE040888270120EE
:1001C0000648804706480047FEE7FEE7FEE7FEE7F1
:1001D000FEE7FEE7FEE7FEE7FEE7FEE7316703081E
:1001E000AD01020810B5431A934209D2831888184A
:1001F00003E010F8011D03F8011D521EF9D210BDD5
:1002000040EA01039B0703D009E008C9121F08C098
:10021000042AFAD203E011F8013B00F8013B521E18
:10022000F9D210BDD2B201E000F8012B491EFBD279
:1002300070470022F6E710B513460A4604461946F1
:10024000FFF7F0FF204610BD421C10F8011B0029EB
:10025000FBD1801A704710B5002200E0521C835C6D
:100260008C5CA34201D1002BF8D1D8B2E1B2401A84
:1002700010BD30B504460020034600E05B1C9342ED
:1002800003D2E05CCD5C401BF8D030BD034611F8D2
:10029000012B00F8012B002AF9D11846704730B520
:1002A00005460020034600E05B1C934205D2EC5C4F
:1002B000C85C201A01D1002CF6D130BD70B50F4DAD
:1002C00000B92868002412E00A4602E09E4203D0EA
:1002D000521C1378002BF9D1DAB2224305D02BB18E
:1002E00024B1002100F8011B04E00446401C0678FC
:1002F000002EE9D12860204670BD0000AC0A002025
:100300002DE9F04791460F4680460446002614F832
:10031000015B2DB100F022FB0068405DC007F6D103
:100320002B2D02D02D2D18D0641E4A46394620466A
:1003300000F021FB27B13968A14201D1C7F8008044
:1003400071054FF002040BD54042002803DD27F071
:1003500087FC0460A007BDE8F08746F48066E4E708
:100360000028F8DA27F07CFC04606FF00040F2E728
:100370002DE9F05F93460F4680460446002627F09D
:100380006FFCD0F80090824614F8015B2DB100F0AC
:10039000E5FA0068405DC007F6D12B2D02D02D2D67
:1003A0001AD0641E0021CAF800105A463946204669
:1003B00000F0E1FA014627B13868A04201D1C7F840
:1003C0000080DAF80000022809D0CAF80090700511
:1003D00005D54842BDE8F09F46F48066E2E708464E
:1003E000F8E770B5064627F03BFC046805460A228C
:1003F00000213046FFF784FF2C6070BD2DE9FE4FD1
:10040000804681EA0300C00F0C46009021F00041B5
:1004100023F00045B8EB0200A94105D24046214631
:1004200090461C460B46024623F00040104347D03E
:10043000270DC7F30A00C3F30A510290401A019036
:1004400040286BDAC3F3130040F4801B00989246F7
:1004500020B10023D2EB030A63EB0B0B0198594642
:10046000C0F14002504600F048FA06460D4650469C
:100470005946019A00F060FA10EB0800614100242F
:1004800087EA115284EAE7731A4340D0009A62B3B4
:10049000019A012A4FEA075215DC001B61EB0201A9
:1004A0004FF0004202EA0752CDE90042001C41F53C
:1004B000801132462B4600F041FB03B0BDE8F08FBF
:1004C00040462146F9E7001B61EB0201001C41F5A3
:1004D000801300185B412018A2F5001747EB0301B9
:1004E00040EAD570B6196D4111E06D084FEA360645
:1004F00045EAC0754FEA0752001B61EB0201001C80
:1005000041F5801149084FEA300000195141324647
:100510002B4603B0BDE8F04F00F001BB009801226C
:1005200040000023D0EB020263EBE0730098214609
:100530004FEAE074B8EB000061EB0401E9E783F0F7
:1005400000435BE781F0004158E72DE9FE4F81EA67
:10055000030404F0004421F0004100944FF0000B2C
:1005600023F0004350EA01045ED052EA03045BD05A
:10057000C3F30A54C1F30A552C44A4F2F334019492
:10058000A0FB0254C1F3130141F48011C3F3130320
:1005900043F4801301FB024400FB034E840A970AD4
:1005A00044EA815447EA8357A4FB076802958D0A01
:1005B00005FB07854FEA932C04FB0C542705029D8D
:1005C0004FEA065847EA1637B5EB08056EEB070CFD
:1005D000870E920E47EA811742EA8312A7FB0201B7
:1005E000B6EB0B0164EB00042B0D43EA0C335E18F1
:1005F00044EB1C50DA465146E7FB0201C5F31304F5
:100600004FEA0B3343EA14534FEA0432019C43EAA6
:100610000603A4F10C040294009CCDE900B400F0A0
:100620008DFA03B0BDE8F08F00200146F9E72DE90F
:10063000F04D81EA030404F0004B21F0004514461C
:100640004FF0000A23F0004150EA050220D054EA9E
:1006500001021DD0C5F30A570246C5F31303C1F3C7
:100660001300C1F30A5640F4801543F48013A7EB3E
:100670000608101BD64608F2FD3873EB050002D3BE
:1006800008F1010801E092185B41B8F1000F03DAAC
:1006900000200146BDE8F08D00204FF48011064691
:1006A00084460EE0171B73EB050705D3121B63EBA3
:1006B000050306434CEA010C49084FEA3000921842
:1006C0005B4150EA0107EDD152EA030012D082EA01
:1006D000040083EA0501084305D0101BAB4106D294
:1006E0000122002306E000224FF0004302E06FF0F9
:1006F000010253101AEB06004CEB085110EB0A00F4
:1007000041EB0B01BDE8F04D00F009BA0EB540F227
:10071000334102910021CDE900110A460B4600F059
:100720000DFA03B000BD0EB540F233420292002232
:10073000CDE90022134600F001FA03B000BD70B508
:10074000C1F30A5201F000450024C1F3130140F245
:10075000FF3341F480119A4201DA002070BD40F26B
:1007600033439A42A2F2334203DC524200F0D4F8FF
:1007700000E090402C43F1D0404270BDC1F30A52DA
:1007800010B5C1F3130140F2FF3341F480119A42D6
:1007900001DA002010BD40F233439A42A2F2334204
:1007A00003DC524200F0B8F810BD904010BD00F0DC
:1007B000004230F000400AD0C10D01F56071C0F375
:1007C000160042EA0151C208400711437047002059
:1007D0000146704730B5041E71F1000404DB4FF090
:1007E0000044404264EB0101141E73F1000405DB78
:1007F0001C464FF00043524263EB04038B4208BF98
:10080000824230BD30B5041E71F1000404DB4FF0AC
:100810000044404264EB0101141E73F1000405DB47
:100820001C464FF00043524263EB0403994208BF59
:10083000904230BD01F0004330B421F0004150EA55
:10084000010206D00A0DA2F56072C1F31301002A5D
:1008500002DC30BC00207047440F44EAC104C100F0
:10086000E01830BC00EBC25000F022B930B50B46A6
:10087000014600202022012409E021FA02F59D42D0
:1008800005D303FA02F5491B04FA02F52844151EA4
:10089000A2F10102F1DC30BD2DE9F05F0546002038
:1008A00092469B4688460646814640241BE02846E1
:1008B00041464746224600F02FF853465A46C01A92
:1008C000914110D311461846224600F016F82D1A11
:1008D00067EB01084F4622460120002100F00DF889
:1008E00017EB00094E41201EA4F10104DFDC48464D
:1008F00031462A464346BDE8F09F202A04DB203AD1
:1009000000FA02F1002070479140C2F1200320FA62
:1009100003F3194390407047202A04DB203A21FA60
:1009200002F00021704721FA02F3D040C2F1200208
:100930009140084319467047202A06DBCB17203A1E
:1009400041FA02F043EAE07306E041FA02F3D040D4
:10095000C2F1200291400843194670470048704791
:10096000BCEC050810B50446FFF7F8FF0068005D11
:1009700000F0010010BD2DE9F05F824600780027ED
:1009800015468B460AF10104B946302801D09DB1C5
:1009900013E014F8010B0127782803D0582801D060
:1009A00045B10AE00DB1102D07D10027102514F82C
:1009B000010B02E0082500E00A250026B0460EE003
:1009C00005FB080005FB06F1012701EB10461FFAA5
:1009D00080F8B6F5803F00D3B94614F8010B2946DC
:1009E00000F024F90028EBDABBF1000F05D00FB1BD
:1009F000641E00E05446CBF80040B9F1000F06D069
:100A000027F02EF902210160C81EBDE8F09F48EAD8
:100A10000640FAE70FB4002300B589B00CA9009195
:100A20000B996FF00042CB601E4B06931E4B079351
:100A30000423CDE901321D4A089202466B4600208C
:100A400000F096F909B05DF814FB70B586B0064663
:100A50004FF0FF300091CDE90101002015460C4612
:100A600004903246694604A8FFF7D4FF0246049872
:100A7000211825B108B1084600E0204628600498F6
:100A800000280DD0002A02DD0098884208D0081BFB
:100A90000094CDE901043246694604A8FFF7BAFF85
:100AA00006B070BDA90F0208C70F02086509020849
:100AB0000029A8BF7047401C490008BF20F0010072
:100AC000704710B4B0FA80FC00FA0CF050EA010450
:100AD00004BF10BC704749B1CCF1200421FA04F4E2
:100AE00011FA0CF118BF012121430843A3EB0C01BB
:100AF000CB1D4FEA00614FEA102042BF002010BC1E
:100B0000704700EBC35010440029A4BF10BC7047CD
:100B1000401C490008BF20F0010010BC704710B510
:100B2000141E73F1000408DA401C41F10001921810
:100B30005B411A4301D120F0010010BD2DE9F04DB9
:100B400092469B4611B1B1FA81F202E0B0FA80F20E
:100B500020329046FFF7D1FE04460F4640EA0A00D5
:100B600041EA0B0153465A46084313D0114653EA53
:100B7000010019D0C8F140025046FFF7CDFE0546EE
:100B80000E46504659464246FFF7B7FE084305D089
:100B9000012004E020463946BDE8F08D00200543E1
:100BA00046EAE0762C4337430A986305E40AA0EB53
:100BB00008000022FD0A44EA47540A3002D500200A
:100BC0000146E9E7010510196941DDE90845001909
:100BD0006941BDE8F04DA2E7C1F30A52C1F3130128
:100BE00040F2FF3341F480119A4202DA00200146BC
:100BF000704740F233439A42A2F2334202DC52423F
:100C0000FFF78ABEFFF779BE064C074D06E0E068A5
:100C100040F0010394E8070098471034AC42F6D343
:100C2000FFF7C8FA18F2050838F205083A2800D28A
:100C3000303820F02002412A01D3A2F13700884247
:100C400001D34FF0FF3070472DE9FF4F087883B094
:100C50009946FF2805D0491C2D2804D000240020E7
:100C600008E000200BE00124F9E700EB800003EB33
:100C70004000491C0B78FF2BF7D104B14042002300
:100C80000293147819461D462D2C01D02B2C04D12B
:100C9000521C2D2C13D000240294AA461478FF2C49
:100CA0000FD00A25A3FB057801FB05814FF0000C4E
:100CB00003FB0C11521CE3194AEB0101EEE701247E
:100CC000EAE7814453EA010002D019F5C87F06DA49
:100CD00003980021C0E9001107B0BDE8F08F00259E
:100CE000AE4E2F46DFF8B8821846FFF71CFDCDE95F
:100CF0000001B9F1000002DAC9F1000400E0044685
:100D00000023A74A1AEB030B42EB045A12E0E00758
:100D100007D02A46334638464146FFF716FC0746B9
:100D200088462A46334610461946FFF70EFC05460C
:100D30000E466410002CEAD1DDE90001B9F1000F84
:100D40005A46534606DAFFF772FC3A464346FFF727
:100D50006EFC05E0FFF7F9FB3A464346FFF7F5FB6B
:100D6000029A0AB181F00041039AC2E90001B3E797
:100D70002DE9FF4F1F468DB0D7E901464FF0FF38F0
:100D80002E2045464FF000090B90B9696D1C0E9856
:100D90008847396A824688470028F6D1BAF1FF3F72
:100DA0000AD024F4D064002E11DDBAF12B0F08D044
:100DB000BAF12D0F0BD102E0404611B08DE744F49B
:100DC0008064B9696D1C0E9888478246761E694614
:100DD000600501D52D2000E02B208DF8000001F1E9
:100DE000010B0DF1200809E0B9696D1C0E988847C8
:100DF00082460F9844F40074761E0560002E02DDD2
:100E0000BAF1300FF0D00B998A453ED144F08004FE
:100E100006E00F99681CA9F1010944F40074086008
:100E2000B9696D1C761E0E98884782463028F0D02E
:100E30002BE00B998A4505D1200603D444F08004A9
:100E4000761E18E0504629F09BF908B30DF1130106
:100E5000761E44F400748B4508D2AAF130000BF8DA
:100E6000010B200607D5A9F1010003E0200602D4FA
:100E700009F101008146A00502D50F99681C0860A0
:100E8000B9696D1C0E9888478246002ED1DC53E06C
:100E9000002E51DDBAF1650F02D0BAF1450F4BD1EA
:100EA000A00549D5B9696D1C24F44074761E0E98CE
:100EB00088478246002E0CDD2B2804D0BAF12D0F76
:100EC00007D144F48074B9696D1C0E988847824636
:100ED000761EE00501D52D2100E02B2108F8011B2D
:100EE000CDF82C8021E00DF12901761E44F4007428
:100EF00088450CD2AAF1300010F0FF0088F80000FD
:100F000002D10B99884509D908F1010806E0E005EE
:100F100001D5244801E042F20F708146B9696D1C89
:100F20000E98884782460F980560002E04DD5046D3
:100F300029F026F90028D6D1F9690E988847FF20B4
:100F40008BF8000088F800000020069007904B46C0
:100F50006A4608A906A8FFF777FEA00502D46FF03D
:100F600001002AE714F0240F0AD0E00714D1DDE9CC
:100F700006123868031D3B600068C0E900120BE0F0
:100F8000DDE90601FFF756FC0146E00704D13868A9
:100F9000021D3A600068016028460EE70000144018
:100FA0000000F03FF1D8FFFF426842B1016811F83C
:100FB000013B23B1521EC0E90012184670470121BF
:100FC000C160881E704742685AB1C368016843B95E
:100FD00083688B4205D0491E521CC0E900120020D4
:100FE00070474FF0FF30704770B58C1810F8015BF8
:100FF00015F0070301D110F8013B2A1106D110F8B2
:10100000012B03E010F8016B01F8016B5B1EF9D1B5
:101010002B0705D40023521E0DD401F8013BFAE73B
:1010200010F8013BCB1A921C03E013F8015B01F8A6
:10103000015B521EF9D5A142D8D3002070BD002912
:10104000816802D041F0010101E021F001018160DD
:1010500070470000084B10B5D3F8042307490A4035
:10106000D0E900142143D0E9024004432143114355
:10107000C3F8041310BD000000200140E030FCFF65
:1010800010B501210C02204613F062F92046BDE89C
:101090001040002113F05CB9C06C80B2704702466A
:1010A000002012680A4200D00120704730B5426823
:1010B0000F4B0C791A400B6842EA04221343436039
:1010C00082680C4B4D791A40D1E9034323438C6865
:1010D00044EA4504234313438360C26A097D22F432
:1010E0007002491EC9B242EA0151C16230BD00001E
:1010F000FFFEFFFCFDF7FFC070B5072409290AD9E0
:10110000C568A1F10A0606EB4606B440A543B34004
:101110001D43C56007E0056901EB4106B440A543E6
:10112000B3401D4305611F23072A09D2446B521E99
:1011300002EB820293409C4391400C43446370BD98
:101140000D2A09D2046BD21F02EB820293409C430A
:1011500091400C43046370BDC46A0D3A02EB8202F5
:1011600093409C4391400C43C46270BD816841F040
:1011700080418160704770B50C46054613F0C8FC8D
:10118000286013F0ABFC206070BD00002DE9F04139
:10119000074601260025132008F082FD0346012F93
:1011A00001D01FB104E023F0400401E043F040040B
:1011B000A3421CD02146152008F0C2FD132008F0E0
:1011C0006FFD03469C4204D10126224639460AA0FF
:1011D00008E028466D1C0026EDB26428EAD92246B4
:1011E00039460EA02BF04CFB3046BDE8F08122467C
:1011F000394612A0F6E7000056545350204F464699
:101200002020203D2025303264284F4B29202530D6
:1012100032582F253032580A0000000056545350DF
:10122000204F4646203D2025303264284E47292055
:10123000253032582F253032580A0000565453506A
:10124000204F4646203D2025303264284F4B292030
:10125000253032582F253032580A00002DE9F0434E
:101260008DB0FFF70DFF0121042013F029F80121B3
:10127000080213F061F803258DF82C5000240D208E
:101280008DF82F400A908DF82E4002268DF82D60A3
:101290000AA92A4804F06CF8F703CDE90647089438
:1012A00006A80994FFF7D6FEDFF8949000948DF815
:1012B00004404FF001088DF8054002940394049413
:1012C0008DF8148069464846FFF7F0FE0121484634
:1012D000FFF7B5FE0121202012F0F2FF0121880264
:1012E00013F02AF88DF82C508DF82F404FF47070C1
:1012F0008DF82E400A908DF82D600AA9114804F04F
:1013000037F8CDE90647089406A80994FFF7A2FE2E
:101310008DF8044000948DF80540029403940494E1
:10132000094C8DF8148069462046FFF7BFFE012165
:101330002046FFF784FE0DB0BDE8F08300080240B0
:1013400000200140001402400022014070B5002638
:101350003446E5B22DF060FC05F0FE002DF092FC65
:1013600030B92DF077FC294609A02BF089FA012627
:101370002DF070FC641CA4B2FF2CEAD916B90CA0A5
:101380002BF07EFA022001F0D9FD002070BD000094
:1013900048555252415920212120536C61766520D5
:1013A00041646472203D2030782532780A000000C4
:1013B0005761726E696E67203A20536C61766520C2
:1013C00041646472204E4F54204D4154434845447B
:1013D000202121210A00000038B545680446014655
:1013E00028461DF0A7FB00282AD02068304A0F2885
:1013F00019D006DC0B2824D00C2810D00E2851D18F
:101400002FE0112802D028284CD145E09268002A0C
:1014100016D02146284601B0BDE83040104721468D
:1014200028465268F7E7284604F0AAFD0090406E6F
:101430000468684604F0EEFD002C01D02846A04761
:1014400038BD284604F09CFD0090683004F000FD93
:10145000009803216C3004F003FD684604F0DAFDC7
:1014600020E0E168486809680D2902D0202913D1DD
:1014700005E0002810DD284623F072FC06E0002875
:1014800004DD2846BDE8384023F06ABC2846BDE8A4
:101490003840022123F07ABCE06818B900212846C0
:1014A00000F081F82046BDE838401DF0EBBE00009A
:1014B0002C080020F0B5044685B08069B4F90850C6
:1014C000668A0027CDE90265CDE900170490B4F9DA
:1014D0000C00B4F91060C118B4F90A00B4F90E5048
:1014E000104433462A4600F007F80546616800F0CC
:1014F00063F805B02846F0BDF0B585B00C46DDE9CF
:101500000D514C31DFF850C0DDE90A67CDE902C169
:101510002146CDE900671DF005FE040018D004F057
:101520002FFD1022294604901DF0F4FC049830226F
:101530000A493430FEF756FE084D04990C3D2868E0
:10154000486604A804F066FD28684168204688477C
:1015500005B02046F0BD0000D9130208380800206D
:10156000F8B515460C4606000DD004F009FD0090B4
:10157000032C02D200EB84004563684604F04AFD68
:1015800030461EF05AFBF8BD38B50D46040009D0B0
:1015900004F0F6FC00904565684604F03BFD2046EB
:1015A0001EF04BFB38BD4FF480720029114601D06C
:1015B0001DF04ABB1DF09CBA2DE9FF410E46050007
:1015C0004FF001041CD004F0DBFC0190876E01A8F1
:1015D000009704F01FFD3146684607F0D3FA78B152
:1015E00000980024B84208D0284604F0C9FC0190B5
:1015F0000099816601A804F00DFD28461EF01DFB30
:1016000004B02046BDE8F08138B50C4605000AD08C
:1016100004F0B6FC0090A0F85C40684604F0FAFCC8
:1016200028461EF00AFB38BDF8B515460C460600E4
:101630000DD004F0A5FC0090032C02D200EB840036
:101640000564684604F0E6FC30461EF0F6FAF8BD84
:101650002DE9F041804601250024122008F0E0F930
:10166000B8F1000F03D0B8F1010F03D004E020F06F
:10167000400601E040F0400600F0F00006F0F00601
:10168000B04218D037093146142008F019FA122058
:1016900008F0C6F9B7EB101F01D101250BE0214678
:1016A000641C0025E4B20329EDD903093A464146FA
:1016B00002A02BF0E5F82846BDE8F08142454550F0
:1016C000202020203D2025303264284E4729202527
:1016D0003032582F253032580A00000010B504006F
:1016E0004FF001000CD0FFF7B3FF204631F014FAA1
:1016F0000020FFF7ADFF2046BDE8104031F00CBAE6
:10170000BDE81040FFF7A4BF3EB50F4900206C466E
:10171000421892F8102A2254401C0C28F8DB4FF093
:10172000FF3032F045FD094A002102F130035060DC
:10173000655C491C85EA10650C2953F8255085EA3B
:101740000020F5DB50603EBD0070FF1F2800002028
:1017500001A02BF095F8FEE70A4275734661756C9F
:10176000745F48616E646C6572000000F8B544688F
:101770000546014620461DF0DDF9002835D02868D1
:101780000B2838D00C2831D00E2802D00F283CD19D
:101790001DE0204604F0F4FB009010F8746F4778C9
:1017A000684604F037FC20461FF05AF810B3E8688A
:1017B0004168002929DD0068202826D17F1CB7FB5D
:1017C000F6F006FB1071204600F0B3F81DE0254648
:1017D000204604F0D5FB0090006F0468684604F0D2
:1017E00019FC002C01D02846A047F8BD2946204608
:1017F00023F029FE09E0204604F0C2FB0090783077
:1018000004F026FB684604F005FC2846BDE8F840D5
:101810001DF038BDF0B585B0B0F90850468A84692E
:101820000296CDE903540027CDE90017B0F90C105A
:10183000B0F91050B0F90E40B0F90A001944104444
:101840002B46224600F002F805B0F0BD2DE9F04F1E
:1018500085B0284CDDE90E97DDF848801D4616005E
:101860008A46834601D035B10AE020688068006866
:1018700080470646F7E7206880680068804705468D
:101880001C486FF07041001DC068884201D147F0CC
:10189000010708F15400184ACDE90220CDE900976C
:1018A0002B463246514658461DF03CFC05001CD0E4
:1018B00004F066FB1022049011991DF02BFB0D49DA
:1018C00004983C22091D3430FEF78CFC04982168F2
:1018D0000167022180F874100F21C16704A804F089
:1018E00099FB206841682846884705B02846BDE82E
:1018F000F08F00009C0900206D17020838B50C46D7
:10190000050015D004F03CFB0090016CA1420CD006
:101910000464B4F1807F01D2002100E00121284657
:101920001EF06FFC28461EF088F9684604F072FB32
:1019300038BD38B50C46050012D004F021FB0090EC
:1019400090F87410A1420CD980F87540684604F0F4
:1019500061FB28461EF071F9052128461EF0EFF9BB
:1019600038BD684604F056FB38BDFEB50D46040090
:101970001ED0002D1CD004F003FB0190866F01A83F
:10198000009604F047FB2946684607F0FBF800285C
:101990000ED00098B04208D0204604F0F1FA019031
:1019A0000099816701A804F035FB20461EF045F937
:1019B000FEBD38B50C4605000CD004F0E1FA0090ED
:1019C000416CA14203D0446428461EF036F96846B3
:1019D00004F020FB38BD000000B589B02421684622
:1019E000FEF727FC192001900348006880684168D1
:1019F0006846884709B000BD9C090020FEB5154621
:101A00000E46044607F082F90A490B4B51F8242090
:101A100053F8243000FB062100FB05220020CDE90D
:101A2000003002900448001F50F82430204600F097
:101A3000FBFDFEBDD8630508000700202DE9FE4F21
:101A40001E46DDE90C9590460F460446DDF838A0A9
:101A500007F05CF9114951F82420114951F824107C
:101A600000FB01220E480E49001D0C3150F82400E5
:101A700051F8243008FB007709FB006607FB0321BF
:101A800006FB03220023401BCDF800A0CDE9010393
:101A90002B46204600F0C8FDBDE8FE8FD863050840
:101AA000F80600202DE9F0471C46DDE908591746E5
:101AB0008846064605F070F9012831D0A4EB0804E9
:101AC000ED1B3046641C6D1C07F020F91D491E4AB1
:101AD0001D4B51F8261052F826200C3300FB021241
:101AE000194853F82630001D50F8260007FB0081E6
:101AF00001FB0321031B1648144F00260760C0F8A2
:101B00003890C1630364466364F31F45456401680C
:101B100041F0010101600168C907FCD1BDE8F0870F
:101B20000022192130460AF0AFF82B4622463946EA
:101B3000404609F07FFC3046BDE8F047054A1921D0
:101B40000AF0A2B8D8630508F806002000020300D6
:101B500000B00240A51A02080B480068018990F8FD
:101B6000702011FB02F309490B80438913FB02F338
:101B70004B8083895B1C53435B1E8B80C089401C58
:101B80005043401EC8807047A80700203C07002033
:101B900010B586B01020049003208DF814000024A6
:101BA0008DF8174004A90C4803F0E2FB3C20CDE976
:101BB000000469460020039400F03CFB0121480723
:101BC00012F0A2FB0121002000F028FB9FED030A88
:101BD00000F054FE06B010BD0000024000000000FE
:101BE0001CB5124912A02AF04BFE0020ADF80400EB
:101BF00000908DF8060008208DF8070002464FF48B
:101C0000A0546946204607F0CFFD1FF009FA38B10D
:101C100008226946204607F0A7FC9DF806001CBD77
:101C200005A000992AF02CFE00201CBDD753050802
:101C30000A25730A000000005265616479207374FC
:101C400061747573206661696C656420212120468A
:101C500041504374726C2E61646472203D2025787B
:101C60000A000000F0B591B00020059006900790A2
:101C700008900E900F9007F077FB0E2205A94FF405
:101C8000A87007F071FC9DF8170000909DF81630C1
:101C90009DF815209DF814102AA02AF0F1FD9DF85A
:101CA0001C1030A02AF0ECFD9DF81D1035A02AF084
:101CB000E7FD9DF81F209DF81E103AA02AF0E0FDD8
:101CC0009DF821209DF820103BA02AF0D9FD9DF819
:101CD000140053280BD19DF81500572807D19DF803
:101CE0001600492803D19DF81700502802D0012082
:101CF00011B0F0BD08220CA94FF4907007F034FC2D
:101D0000BDF83600BDF83410C6B2070ABDF832007F
:101D10000B0AC5B2040AC8B2BDF8301004968DE8AB
:101D2000B100CAB2090A29482AF0AAFD02208DF89A
:101D3000380001220EA94FF4C26007F035FD1FF0F4
:101D40006FF9D5E750726F746F636F6C204E616DE1
:101D500065203D2025632025632025632025632001
:101D60000A00000070726F746F636F6C206D696E93
:101D70006F7220766572203D2030782530327820D1
:101D80000A00000070726F746F636F6C206D616A7F
:101D90006F7220766572203D2030782530327820B1
:101DA0000A000000564944203D2030782530327822
:101DB00025303278200A0000504944203D203078F8
:101DC0002530327825303278200A000074ED05087D
:101DD00038B50324009400F08DFC38BD38B50424D8
:101DE000009400F087FC38BD38B50224009400F060
:101DF00081FC38BD38B50024009400F07BFC38BD70
:101E000038B50024009400F075FC38BD1CB51DF0F9
:101E10006FFB0346002000900190034A1121034804
:101E200004F08AFB1CBD000071840408F455050809
:101E30001CB51DF05DFB0346002000900190034A95
:101E40000321034804F078FB1CBD0000F17D040869
:101E5000105405081CB51DF04BFB034600200090F4
:101E60000190034A0A21034804F066FB1CBD0000F0
:101E7000197F0408645405081CB51DF039FB03469E
:101E8000002000900190034A0421034804F054FB11
:101E90001CBD0000258304087C5505081CB51DF0F9
:101EA00027FB0346002000900190034A05210348C8
:101EB00004F042FB1CBD00009D870408D0570508B4
:101EC0001CB51DF015FB0346002000900190034A4D
:101ED0001521034804F030FB1CBD000031890408C3
:101EE0005C5805081CB51DF003FB0346002000905C
:101EF0000190034A0721034804F01EFB1CBD0000AB
:101F0000B1900408A85A05081CB51DF0F1FA034663
:101F1000002000900190034A1521034804F00CFBB7
:101F20001CBD0000759504086C5B05081CB51DF010
:101F3000DFFA0346002000900190034A0521034880
:101F400004F0FAFA1CBD0000859E0408B85D05087F
:101F50000FB470B5054606AA0A48059925F06EFE2D
:101F6000094C05B1A560074A08A1A06825F052FEFA
:101F70000448FEF769F9A1680844A06070BC5DF8E8
:101F800014FB000000002ED0280000202573000064
:101F90002DE9F04701260024174688468146FF2890
:101FA00011D0A9F10100072856D8132007F038FDF9
:101FB0000121A9F101029140B8F1000F2ED0B8F132
:101FC000010F2ED02FE0B8F1010F03D0B8F1000FB0
:101FD00010D041E0FF21152007F072FD132007F01B
:101FE0001FFDFF282AD02046641C0026E4B20328E7
:101FF000F0D90DE00021152007F062FD132007F055
:102000000FFDD8B12046641C0026E4B20328F1D9A4
:102010003A46414630A02AF033FC1DE020EA010593
:1020200001E0CDB20543A84216D02946152007F09D
:1020300047FD132007F0F4FC854201D101260BE097
:102040002046641C0026E4B20328EED93B464246F3
:10205000494628A02AF014FC2E480168494535D18C
:10206000B8F1010F32D1052012F060FB000A000721
:102070002CD0294D4FF480547F1EBFB229D3214666
:10208000284603F077FB18B1012030F045FDF3E757
:102090000021152007F014FD132007F0C1FC1FA03C
:1020A0002AF0EEFB21A2802101200EF02DFE01205E
:1020B000FFF7CEFA01F07EFD0020FFF7C9FA1BA260
:1020C000802100200EF020FE002602E0384630F08D
:1020D00023FD3046BDE8F087536F6C20414C4C2007
:1020E0003D20253032642C20253034646D73284E19
:1020F00047290A00536F6C202530326420203D2090
:10210000253032642C20253034646D73284E4729E5
:102110000A000000E80400200008024053616665E0
:102120002053656E736F72204F4E0A0053616665CF
:102130002053656E736F72204F4E00002DE9F043FF
:1021400004468FB00020154689460D9006460E9035
:1021500022461EA1684625F05DFD6A4680210120C9
:102160000EF0D2FD0DA9A4F101080F1915E000BF72
:1021700013F02BF920FA08F000F0010007F8010C29
:10218000484507D1012618A02AF07AFB802117A222
:10219000002015E0012030F0BFFC6D1EADB2E7D28B
:1021A00013A02AF06DFB00221146FF20FFF7F0FE7E
:1021B000224610A1684625F02DFD6A4680210120A7
:1021C0000EF0A2FD0FB03046BDE8F08343686563B2
:1021D0006B2043796C696E6465722053656E736F12
:1021E00072282530325829004F4B0A0000000000A9
:1021F0004E470A0043796C696E6465722053656EC0
:10220000736F722825303258290A506F73697469C8
:102210006F6E204572726F7200000000044A012345
:102220008340106809B1184300E09843106070477C
:102230000074004030B5084C236840F6FE728240BE
:102240009343D1E900252A43D1E902510D432A43A2
:1022500082401A43226030BD00740040034A08B532
:10226000104408300090016008BD00000074004078
:1022700001480068704700006808002070B50646F5
:1022800090B0052012F052FA000715D0052012F088
:102290004DFA00F00F00012810D0052012F046FA88
:1022A00000F00F0002280BD0052012F03FFA00F0DA
:1022B0000F00032806D00AE0754A04E0754A02E0E0
:1022C000754A00E0754A76A107A825F0A3FC754A77
:1022D00075A1784825F09EFC76482BF00BFD07ABE6
:1022E000704A75A1734825F095FC72482BF002FDE9
:1022F000754C07ABE078627921798DE80700694A6F
:1023000072A16C4825F086FC6A482BF0F3FC774DEF
:1023100021796079E2782B68CDE90321CDE90503C5
:10232000CDE90021029007AB5E4A71A1804825F0FB
:1023300071FC5C4A5CA17F4825F06CFC7D482BF069
:10234000D9FC07AB574A5CA17A4825F063FC794871
:102350002BF0D0FCE078627921798DE8070007AB9B
:10236000504A5AA1734825F055FC72482BF0C2FC24
:10237000E078627921798DE8070007AB494A6EA1C0
:102380006C4825F047FC6B482BF0B4FC2179607950
:10239000E2782B68CDE90321CDE90503CDE90021E1
:1023A000029007AB3F4A6D496D4825F033FC217917
:1023B0006079E2782B68CDE90321CDE90503CDE909
:1023C0000021029007AB374A6649674825F022FC96
:1023D0002B68E07803AD6279217985E80F008DE8FC
:1023E000070007AB2F4A6149614825F013FC2D4ACD
:1023F0002DA1604825F00EFC5E482BF07BFC07AB5E
:10240000284A2DA15B4825F005FC5A482BF072FCA8
:10241000E078627921798DE8070007AB214A2BA18A
:10242000544825F0F7FB53482BF064FCE0786279C0
:1024300021798DE8070007AB1A4A4FA14D4825F0D6
:10244000E9FB4C482BF056FC16485549012E12D09A
:10245000002E0ED1096863792279CDE90301CDE917
:102460000123E0780F4A07AB4EA100905D4825F0AC
:10247000D1FB10B070BD096863792279CDE9030101
:10248000CDE90123E07807AB064A57A10090EDE7BC
:10249000387651D07C7951D0C07C51D0048051D055
:1024A00025730000D07451D0303A2F4C4F47282567
:1024B00073290000C8150020303A2F4C4F472825BB
:1024C00073292F257300000044050020303A2F4C5B
:1024D0004F47282573292F25732F3230253032643A
:1024E0002D253032642D2530326400002C00002070
:1024F000303A2F4C4F47282573292F25732F323020
:10250000253032642D253032642D253032642F730E
:10251000756D6D6172795F253032642530326425C6
:10252000303264282530386C58292E6373760000C9
:10253000C8160020C8170020303A2F4C4F472825D6
:1025400073292F25732F3230253032642D253032F8
:10255000642D253032642F66756E63006CEE0508BD
:10256000C8180020B0EE0508C8190020F8EE0508CC
:10257000C81A0020C81B0020303A2F4C4F4728258E
:1025800073292F25732F3230253032642D253032B8
:10259000642D253032642F5344435F4C6F67000035
:1025A000C8210020303A2F4C4F47282573292F256A
:1025B000732F3230253032642D253032642D253092
:1025C00032642F5344435F4C6F672F25735F54531E
:1025D000505F4C4F475F53504C25645F462E6373EA
:1025E00076000000C81C0020303A2F4C4F472825A9
:1025F00073292F25732F3230253032642D25303248
:10260000642D253032642F5344435F4C6F672F2570
:10261000735F5453505F4C4F475F53504C25645F7A
:10262000502E6373760000002DE9F0470E4608A98E
:102630001C4691E88003154606F078FB0B494FF4E1
:1026400000720A60CE60CD63C1F81080C1F840907E
:10265000C861384664F31F404864086840F00100D0
:1026600008600868C007FCD1BDE8F08700B00240F0
:10267000AFF30080014902208860704700B002403B
:1026800070B515460E461C461A46154908F082F9E3
:1026900022461449304608F07DF91448114A104B7F
:1026A000114EA2F570510660C3604261C163002102
:1026B000016181610164C16141624163012101EBFA
:1026C00004414164016841F0010101600168C907EA
:1026D000FCD122462946BDE87040054808F05AB9A9
:1026E000F8680020F88600200002020000B00240D6
:1026F000F84A0020F8B50E4614460649069D08F033
:1027000050F92B46002231460248009400F004F8AC
:10271000F8BD0000F84A002070B50C4C4FF481362B
:10272000049D2660E060E163002020612064E26196
:102730006363012000EB05406064206840F0010005
:1027400020602068C007FCD170BD000000B00240CE
:1027500038B514460D46049A002305490094FFF746
:10276000DBFF22462946BDE83840014808F019B988
:10277000F84A00200EB5FF23B3EB116F26D080F08E
:102780007F40009081F07F40019012481049016025
:10279000C0F80CD001A9416102A9C1634FF4803196
:1027A00041EA0261C161C2F1FF01090641620021F3
:1027B00041634FF001114164016841F00101016082
:1027C0000168C907FCD1029880F07F400EBD00006F
:1027D0000002020000B002402DE9F0410746012648
:1027E0000025132007F05CFA0346012F01D01FB12A
:1027F00004E023F0800401E043F08004A3420AD007
:102800002146152007F09CFA132007F049FA0346E9
:102810009C4204D101262246394608A008E02846F9
:102820006D1C0026EDB26428EAD9224639460BA079
:102830002AF026F83046BDE8F08100005655534294
:102840005F4F4646203D2025303264284F4B2920DB
:10285000253032582F253032580A00005655534241
:102860005F4F4646203D2025303264284E472920C0
:10287000253032582F253032580A00009FED091AB2
:10288000F0EE040A20EE010A80EE201AB7EE000AEC
:1028900031EE400ABCEEC00A10EE100A81B20020F0
:1028A000FFF7DCBC0000804530B51848ADF20C4D98
:1028B00040F6150100681CF031FE154C6FF07F41A9
:1028C000206014F05FF84FF40001206813F0F8FF67
:1028D000104DDFED110A95ED000AB8EEC00A20EEAA
:1028E000200A10EE100AFDF762FFCDE900010BA1EE
:1028F00002A86A6825F08EF902A9206814F00DF884
:1029000004F07AF90DF20C4D30BD000010060020E5
:10291000F8050020D42100200000803A202D202539
:10292000730A202D2073697A65203A20252E32669D
:10293000206B42003EB501F027FA2449002011F037
:1029400065FE2349002011F085FE22484168224897
:1029500001F0FCF9214D002404F10160295D2030D3
:1029600001F0BAF9641CB42CF6DB184C1A48E17873
:10297000143801F0EBF918486178103801F0E6F9E5
:102980001548A1780C3801F0E1F9114C1248217872
:10299000083801F0DBF910486178001F01F0D6F922
:1029A0004FF001640E49204601F0D0F954F8102B85
:1029B00074E803018DE8070094E80E0009A029F0EF
:1029C0005FFF01F081F901203EBD00005C040020A2
:1029D00058040020C4050020180010081823002007
:1029E000415441443230253032642D253032642D3B
:1029F000253032642C20253032643A253032645B35
:102A000025585D20496E70757420446174612053AF
:102A1000617665204F4B210A000000002DE9FE4F32
:102A2000044601F0B1F958A12046FDF747FC824663
:102A300055A10020FDF742FC814653A10020FDF77F
:102A40003DFC804650A10020FDF738FC07464EA112
:102A50000020FDF733FC06464BA10020FDF72EFCBD
:102A6000044649A10020FDF729FC054646A10020A7
:102A7000FDF724FC83462046FDF7B3FC014643489E
:102A800001F064F9002404F10160295D203001F0B7
:102A900023F9641CB42CF6DB5046FDF7A2FCC1B24E
:102AA0003A48143801F052F94846FDF79AFCC1B291
:102AB0003648103801F04AF94046FDF792FCC1B2A1
:102AC00032480C3801F042F93846FDF78AFCC1B2B1
:102AD0002E48083801F03AF93046FDF782FCC1B2C1
:102AE0002A48001F01F032F94FF0016428492046BE
:102AF00001F02CF9102200215846FDF739FC01465F
:102B00002248001D01F022F954F8102B74E803014B
:102B10008DE8070094E80E001EA029F0B1FE17F022
:102B2000C1FF00F0EDF94FF0FF3031F041FB2949D2
:102B3000274D04460A680020274B296807E0165CE9
:102B4000401C86EA146653F8266086EA0424814213
:102B5000F5DC22A0A96829F093FE214625A029F0E2
:102B60008FFEA9682848A14201D1012100E000217F
:102B70000170254A0521892032F00CF801F0A4F8F3
:102B80000120BDE8FE8F00002C0000001800100896
:102B9000415441443230253032642D253032642D89
:102BA000253032642C20253032643A253032645B83
:102BB00025585D20496E70757420446174612053FE
:102BC000617665204F4B215B25585D0A00000000AF
:102BD000D42100204C05002058000020496E5F647D
:102BE0006174612E63726333323A20253038582085
:102BF0000A0000006372635F74656D703A202530CF
:102C00003858200A00000000A02900202F4810B5E5
:102C1000007870B14FF400042DA22146012013F07A
:102C2000D5FCFA20FEF75AFD28F058FC012803D005
:102C30002FE02AA2802125E029F0AEFA002828D032
:102C40000120FEF74BFD2CA22146012013F0BEFC13
:102C500029F07EFDE8B10120FEF740FD2BA22146C0
:102C6000012013F0B3FC29F001FD90B10120FEF723
:102C700035FD2BA22146012013F0A8FCFFF75AFED8
:102C80002CA22146012013F0A1FCFA20FEF726FD1C
:102C90000EE029F081FA2DA28021012013F096FC8C
:102CA0000120FEF7D5FC00F085FF0020FEF7D0FCE8
:102CB00017F0F8FE00F024F9642000F03FF98021BD
:102CC000BDE8104028A2002013F080BC840600203C
:102CD000555342204D6F756E7400000055534220CD
:102CE000556E6D6F756E740A28507265737320454A
:102CF0005343204B4559290044617461204172655A
:102D0000610A457261736520204F4B004461746114
:102D10002046696C650A577269746520204F4B0024
:102D2000446174612046696C650A5665726966790A
:102D3000204F4B00446174612046696C650A5570F0
:102D4000646174652066696E7368000046696C652D
:102D5000204572726F720A28507265737320455352
:102D600043204B4559290000000000002DE9F041A7
:102D70004FF48071604D8E01604C4F01092849D29B
:102D8000DFE800F00509294D657989959D00284601
:102D900002F0F9FC96E0284602F0F5FC8021284676
:102DA00002F0F1FC4021284602F0EDFC0821284603
:102DB00002F0E9FC3146204602F0E5FC39462046A7
:102DC00002F0E1FC0821204602F0DDFC042120464F
:102DD00002F0D7FC1EE0284602F0D5FC80212846F0
:102DE00002F0D1FC4021284602F0CDFC0821284603
:102DF00002F0C9FC3146204602F0C5FC39462046A7
:102E000002F0C1FC0821204602F0BBFC0421204650
:102E100002F0B9FCBDE8F041012000F0A5B8284659
:102E200002F0B1FC8021284602F0ADFC402128468A
:102E300002F0A9FC0821284602F0A5FC31462046F4
:102E400002F0A1FC3946204602F09BFC4EE02846E9
:102E500002F099FC8021284602F095FC402128468A
:102E600002F091FC0821284602F08DFC31462046F4
:102E700002F087FC36E0284602F085FC80212846D7
:102E800002F081FC4021284602F07DFC0821284602
:102E900002F077FC22E0284602F075FC80212846EB
:102EA00002F071FC4021284602F06BFC12E028463B
:102EB00002F069FC8021284602F063FC06E0284607
:102EC00002F05FFC8021284602F05DFC402128468C
:102ED00002F059FC0821284602F055FC31462046F4
:102EE00002F051FC3946204602F04DFC08212046F4
:102EF00002F049FC8AE7000000200240001802406E
:102F000010B510F053FFBDE81040FFF7CDBC000036
:102F100001A029F0B5FCFEE70A44656275674D6FB4
:102F20006E5F48616E646C657200000001B50098C8
:102F300000EB80004000401EFDD208BD4FF47A71C6
:102F40004843084910B50B6A4C6AC01844F10002A6
:102F50008862CA620C6A486A8A6ACB6AA21A984175
:102F6000F8D310BD28000020084910B50A6A4C6A41
:102F7000101844F100048862CC62086A4C6A8A6ABC
:102F8000CB6A801A9C41F8D310BD000028000020B5
:102F90002DE9F041074601260025132006F020FF09
:102FA00017B1012F03D004E020F0010401E040F04C
:102FB0000104A04219D02146152006F061FF13201C
:102FC00006F00EFF03469C4204D1012622463946F4
:102FD00007A008E028466D1C0026EDB26428EAD957
:102FE000224639460BA029F04BFC3046BDE8F08163
:102FF000446973636861726765315F4F4E203D209D
:1030000025303264284F4B2920253032582F253067
:1030100032580A00446973636861726765315F4FB3
:103020004E203D2025303264284E4729202530325D
:10303000582F253032580A002DE9F0410746012665
:103040000025132006F0CCFE17B1012F03D004E0B9
:1030500020F0020401E040F00204A04219D0214611
:10306000152006F00DFF132006F0BAFE03469C4221
:1030700004D101262246394607A008E028466D1CE7
:103080000026EDB26428EAD9224639460BA029F081
:10309000F7FB3046BDE8F08144697363686172678D
:1030A00065325F4F4E203D2025303264284F4B293A
:1030B00020253032582F253032580A004469736376
:1030C0006861726765325F4F4E203D202530326463
:1030D000284E472920253032582F253032580A00F3
:1030E00038B5BA49BA4C0870E16958B101281CD00A
:1030F000022850D0032868D004287DD005287CD031
:1031000006287BD008461DF0AFF80121E0691DF0CC
:1031100055F8206A1DF0A8F80121206A1DF04EF82C
:10312000606A1CF0D1FC002111E008461CF0CCFCC8
:103130000021E0691DF042F8206A1CF0C5FC002166
:10314000206A1DF03BF8606A1DF08EF80121606A6C
:103150001DF034F8A06A1CF0B7FC0021A06A1DF035
:103160002DF8E06A1CF0B0FC0021E06A1DF026F8A2
:10317000206B1CF0A9FC0021206B1DF01FF8606B78
:103180001CF0A2FC0021606B1DF018F8A06B1CF075
:103190009BFC0021CAE008461CF096FC0021E06977
:1031A0001DF00CF8206A1CF08FFC0021206A1DF035
:1031B00005F8606A1CF088FC0021606A1CF0FEFFC4
:1031C000A06A1DF051F80121C8E708461CF07CFCFC
:1031D0000021E0691CF0F2FF206A1CF075FC002160
:1031E000206A1CF0EBFF606A1CF06EFC0021606A34
:1031F0001CF0E4FFA06A02E034E062E0A4E01CF00E
:1032000063FC0021A06A1CF0D9FFE06A1DF02CF8D5
:103210000121E06A1CF0D2FF206B1DF025F801218E
:10322000206B1CF0CBFF606B1CF04EFC0021606B30
:103230001CF0C4FFA06B1CF047FC0021A06B1CF02D
:10324000BDFFE06B1CF040FC0021E06B1CF0B6FF02
:103250002DF072F86069241D009094E80F002DF0A5
:1032600049FA6DE008461CF02FFC0021E0691CF0D3
:10327000A5FF206A1CF028FC0021206A1CF09EFF9C
:10328000606A1CF021FC0021606A1CF097FFA06AB4
:103290001CF01AFC0021A06A1CF090FFE06A1CF0F0
:1032A000E3FF0121E06A1CF089FF206B1CF00CFC9D
:1032B0000021206B1CF082FF606B1CF0D5FF012108
:1032C00061E708461CF000FC0021E0691CF076FF75
:1032D000206A1CF0F9FB0021206A1CF06FFF606A75
:1032E0001CF0F2FB0021606A1CF068FFA06A1CF071
:1032F000EBFB0021A06A1CF061FFE06A1CF0B4FF48
:103300000121E06A1CF05AFF206B1CF0DDFB00215C
:10331000206B1CF053FF606B1CF0D6FB0021606B30
:103320001CF04CFFA06B1CF09FFF0121A06B1CF058
:1033300045FFE06B1CF0C8FB0021E06B1CF03EFF7A
:10334000BDE8384003F058BC08461CF0BDFB002126
:10335000E0691CF033FF206A1CF0B6FB0021206AF4
:103360001CF02CFF606A1CF0AFFB0021606A1CF0AF
:1033700025FFA06A1CF0A8FB0021A06A1CF01EFF1C
:10338000E06A1CF071FF0121E06A1CF017FF206B5E
:103390001CF09AFB0021206B1CF010FF606B1CF0EE
:1033A00093FB0021606B1CF009FFA06B1CF08CFBF1
:1033B0000021A06B1CF002FFE06B1CF055FF012107
:1033C000E06B1CF0FBFE00F009FAB9E724000020D6
:1033D000E00500202DE9F0430546ADF20C4D3F49D4
:1033E0003FA029F04DFA4FF480616846FCF721FFB9
:1033F0003E480026DFF8F08000684FF40037814631
:10340000014634463AA029F03BFA062011F08EF925
:10341000000E000704D021463BA029F031FA07E056
:103420004FF480410C4642A029F02AFADFF82481AB
:1034300049A029F025FA49464EA029F021FA39463B
:103440004FA029F01DFAB94509DD52A029F018FA5C
:10345000494654A029F014FA394655A039E02946C6
:1034600058A029F00DFA2CE01027002508EB0601E2
:103470003A466846FCF7B6FE05F5C04080B23A46CB
:10348000694606F091F93D443E44802DEEDB8020F4
:10349000ADF8040400208DF8060403208DF807041D
:1034A000CDF8004408220DF580614FF4A05006F0DD
:1034B0007BF91DF0B5FD214650B14AA029F0E0F995
:1034C00080344C45D0DB01200DF20C4DBDE8F0837B
:1034D00049A029F0D5F90020F6E70000E6530508D9
:1034E0000A25730A0000000000401008D4210020C3
:1034F000462F572073697A65203A20256420627927
:103500007465730A000000003132386B6220467522
:103510006C6C205772697465205365742C20094FB8
:103520006666736574203D203078253034580A0073
:103530003131326B62205772697465205365742C87
:1035400020094F6666736574203D2030782530343D
:10355000580A000000801008465720446F776E6CB0
:103560006F61642050726F6365737320537461726E
:10357000740A00006E53697A65203D2025640A00B4
:1035800046575F4150505F53495A45203D202564BE
:103590000A00000046572053697A65204572726F11
:1035A000720A00006E53697A65203D2025780A0072
:1035B00046575F4150505F53495A45203D2025787A
:1035C0000A00000050726F6365737320233120423C
:1035D0006F6F7374206D6F6465203D20307825789F
:1035E0000A0000004641504374726C2E616464729C
:1035F000203D2025780A00005265616479205374CB
:1036000061747573204661696C65642021212046D0
:1036100041504374726C2E61646472203D202578A1
:103620000000000070B5244E0546002436F8151041
:1036300022A029F025F9294625A029F021F936F8FC
:103640001500012804D0022807D0032831D11EE03C
:10365000284629F07FFE04462BE000F085F820A0E4
:103660000AF0D2FC412155200AF026FD30F047FE39
:1036700028462AF0D9F8044600F046F8012C04D078
:1036800019A000BF0AF0C0FC13E019A0FAE714A0CB
:103690000AF0BAFC412155200AF00EFD00F064F852
:1036A00030F02DFE284629F089FE044611A029F0AD
:1036B000E7F8204670BD0000505E51D02020204524
:1036C0004550524F4D203D3D3E20253032640A008A
:1036D000696E646578204E6F203A2025640A0000E8
:1036E0007E696E672E2E2E004661696C0000000018
:1036F0004F4B0000454550524F4D2056657269664C
:103700007920656E640A000010B50021012000F0E8
:1037100069FA0021022000F065FA0A20FFF70EFC8A
:10372000002011F029F90020FDF730FD3220FFF7CD
:1037300005FC0020FFF750F83220FFF7FFFB0120C7
:10374000FFF726FC0120FFF777FC4FF4FA70FFF734
:10375000F5FB0020FFF71CFC0020FFF76DFCBDE827
:1037600010403220FFF7EABB10B5012100220846C5
:1037700001F01EF800220121022001F019F80022B8
:103780000121032001F014F800220121042001F09E
:103790000FF800220121052001F00AF8FA22002189
:1037A000062001F005F80021012000F01BFA01219C
:1037B000022000F017FA0120FFF70EF80A20FFF7A9
:1037C000BDFB0120FDF7E2FC012011F0D5F8BDE8BA
:1037D00010404FF4FA70FFF7B1BB000070B52DED4B
:1037E000088B8EB0012000F095F83220FFF7A6FB81
:1037F0000121084600F0F6F90121022000F0F2F95B
:103800003220FFF79BFBC821042011F005FEFCF7D6
:103810007DFF9FED33BB53EC1B2BFCF796FE9FED1A
:10382000328B53EC182BFCF790FE9FED319B53EC41
:10383000192BFCF78AFE9FED30AB53EC1A2BFCF7EB
:10384000F6FE2F4CC4E90001C821052011F0E4FD6B
:10385000FCF75CFF53EC1B2BFCF777FE53EC182BAB
:10386000FCF773FE53EC192BFCF76FFE53EC1A2B8D
:10387000FCF7DDFEC4E9020194ED000B21A153EC3D
:10388000102B684624F0C6F9204D40F60201286846
:103890001BF044FE1E4E6946306013F03EF894ED76
:1038A000020B18A153EC102B684624F0B3F940F634
:1038B000040128681BF032FE6946306013F02DF8D1
:1038C0000021012000F08EF90021022000F08AF989
:1038D000002000F01FF80EB0BDEC088B70BD00009A
:1038E000000000000000303F000000000000044025
:1038F0001F85EB51B8FE4740F6285C8FC2F5134098
:1039000048060020252E326C662056001C0600203A
:10391000F80500202DE9F041804601250024122001
:1039200006F07EF8B8F1000F03D0B8F1010F03D014
:1039300004E020F0800601E040F0800600F0F00096
:1039400006F0F006B04218D037093146142006F0D0
:10395000B7F8122006F064F8B7EB101F01D101256B
:103960000BE02146641C0025E4B20329EDD90309CC
:103970003A46414604A028F083FF64202FF0CCF89B
:103980002846BDE8F08100004556434320525920A7
:103990003D2025303264284E472920253032582FCB
:1039A000253032580A000000704700002DE9FE4F14
:1039B000044600F0E9F958A12046FCF77FFC814657
:1039C00055A10020FCF77AFC824653A10020FCF7A9
:1039D00075FC834650A10020FCF770FC80464EA188
:1039E0000020FCF76BFC06464BA10020FCF766FCB0
:1039F000044649A10020FCF761FC054646A10020D1
:103A0000FCF75CFC00902046FCF7EBFC01464348C9
:103A100000F09CF9414F00240837295DE01900F0BF
:103A20005BF9641CB42CF8DB4846FCF7DAFCC1B245
:103A30003A48143800F08AF95046FCF7D2FCC1B27B
:103A40003648103800F082F95846FCF7CAFCC1B27B
:103A500032480C3800F07AF94046FCF7C2FCC1B29B
:103A60002E48083800F072F93046FCF7BAFCC1B2B3
:103A70002A48001F00F06AF9284C2949183C2046C2
:103A800000F064F9102200210098FCF771FC014657
:103A90002248001D00F05AF954F8102B74E8030175
:103AA0008DE8070094E80E001EA028F0E9FE18F04B
:103AB00071FC29F0E3FB4FF0FF3030F079FB28492F
:103AC000264D04460A680020264B296807E0165C4C
:103AD000401C86EA146653F8266086EA0424814274
:103AE000F5DC21A028F0CCFE224624A0A96828F00D
:103AF000C7FEA9682E48A14201D1012100E00021A2
:103B000001702B4A0521BB2031F044F800F0DCF8AD
:103B10000120BDE8FE8F00002C00000018000C08FA
:103B2000128475323230253032642D253032642DC6
:103B3000253032642C20253032643A253032645BE3
:103B400025585D20454550204461746120536176BD
:103B500065204F4B215B25585D0A0000EC210020B9
:103B60005405002058000020496E5F6565702E7373
:103B7000697A653A202564200A000000496E5F6575
:103B800065702E63726333323A202530385820092D
:103B9000092063616C63756C617465642063726392
:103BA0005F74656D703A2025303858200A00000097
:103BB000A029002070B5094D0026094C06F074FFBD
:103BC00028B92878012804D1207810B12670082857
:103BD00003D00520FFF7B2F9F0E770BD090500201A
:103BE0000805002010B501280ED0022811D00328A6
:103BF00014D0002018F032FD002018F06DFD0120D7
:103C0000BDE8104018F0A6BDBDE81040084618F009
:103C100025BDBDE81040084618F05EBD0846EFE738
:103C200070B50646002529B1012927D0022928D0E0
:103C30004FF4407500F0BAF809281ED1124C2068E4
:103C400020F440702060206828432060206820F025
:103C5000F8002060206846F00201084320602068D8
:103C600040F48030206000F0A1F8216821F00201CA
:103C70002160216821F0F801216070BD4FF480754A
:103C8000D8E74FF40075D5E7103C02400D490920F4
:103C90000A68D20301D5012070470A68D20601D50F
:103CA000062070470A68D20501D5022070470A68CD
:103CB00012F0EF0F01D00720704709688907FBD584
:103CC000082070470C3C02400248016841F0004166
:103CD00001607047103C024070B50D46064600F08A
:103CE00065F8092811D1094C206820F44070206043
:103CF00020682060206840F001002060357000F0EE
:103D000055F8216821F00101216070BD103C02408E
:103D100070B50D46064600F049F8092813D10A4C43
:103D2000206820F440702060206840F4807020609B
:103D3000206840F001002060358000F037F82168ED
:103D400021F00101216070BD103C024070B50D46AC
:103D5000064600F02BF8092813D10A4C206820F4FD
:103D600040702060206840F400702060206840F0BF
:103D700001002060356000F019F8216821F0010190
:103D8000216070BD103C024005480068002805DA3B
:103D9000034804490C380160034901607047000082
:103DA000103C024023016745AB89EFCD08B50920DF
:103DB0008DF80000FFF76AFF8DF800009DF8000005
:103DC0000128F7D09DF8000008BD00234FF02042E5
:103DD00010280AD0B0F5807F09D0B0F5805F09D0F7
:103DE000D2F85801814309D107E0506EFAE7D2F8C2
:103DF0008400F7E7D2F8A400F4E7012318467047DF
:103E0000D0E90012114382686FF01F03C06803EB12
:103E1000421242EA402001434FF02040C0F85011C6
:103E200070470000F0B5D0E901121143D0E9032337
:103E30001A4311434269C36911438269056A1143F8
:103E40001943446A2943066821434FF0204286B350
:103E50002B432343C2F8403103689B00A3F1C043C6
:103E6000C3F840116FF00F042501260301682304F5
:103E700019B3876AD7E9001C04EB0C14491E2143CF
:103E8000BC6805EB042421433C8ABD8A06EB04444C
:103E90002143FC6803EB05532403A4F580541C4321
:103EA000C2F8484100688000A0F1C040C0F8481145
:103EB000F0BDFFE7C2F84011D4E7816AD1E90007FD
:103EC00004EB0714401E20438C6805EB04242043B8
:103ED0000A4DCC6805EB043420430C8A06EB0444FD
:103EE00020438C8A097E03EB045318432B0303EB16
:103EF00001610843C2F84801DAE7000000F0FFFF63
:103F00004FF02041D1F8542142EA4000C1F8540159
:103F100070472DE9F047456804468EB000262846D4
:103F200002F02EF800905C30B0F820A0D0F80C9091
:103F3000D0F82480C76A006800B10668684602F0BD
:103F400069F805E079682046884700283DD13F6838
:103F5000002FF7D12068142844D009DCA0F10B0011
:103F6000072839D2DFE800F0BE3989B434B4110033
:103F700020287ED004DC17283ED01E282CD14BE010
:103F800026283CD02A2827D110E02846E66801F0F0
:103F9000F7FF0190717A39B9317A012904D130F8EB
:103FA0007C1F41F48071018001A88FE0284601F058
:103FB000E7FF0090E16811B1C0F8841002E0D0F88A
:103FC0008400E060684602F025F80EB0BDE8F08796
:103FD000002E7DD02846B0477AE02146284621F0C1
:103FE0006BFAF2E705A9284600F058FAE06806994E
:103FF000016007994160E8E7C4F80C90E5E7E068E4
:104000000228E2D10C95E0680D9027200A900AA9B9
:10401000A0681CF027FED8E7E068012804D0002142
:10402000284600F054F9D0E740461BF05BFE58B13B
:1040300040461BF0F5FF40461BF036FD88B10121DC
:1040400040461AF001FE0CE048461CF037F8804666
:10405000284601F095FF0090C0F88080684601F086
:10406000D9FF0121284600F032F9B8F1000FACD198
:1040700000E00EE00020E060A7E75FEA0A7027D4C6
:10408000E068C06820B3007A10B328461BF0C8FF70
:104090001EE0E668E6B1294670681CF0CAFB20B154
:1040A0000121284622F098FA12E00021284622F049
:1040B00093FA294630681CF0ABFB48B1284601F062
:1040C0005FFF03903168C0F8801003A801F0A2FFE1
:1040D000214628461AF02EFD00288CD020461BF0E1
:1040E000D1F872E7284601F04BFF0090703001F0E4
:1040F000AFFE6846EAE7F0B587B0B0F908400DF1C9
:104100000C0C0C9E87694568ACE8F000448A0025D9
:10411000CDE900150294B0F90C10B0F91050B0F9C7
:104120000E40B0F90A00194410442B46224600F014
:1041300003F807B0F0BD00002DE9F0478AB00DF19B
:104140004C0CDDE91784BCE86006129F45F48055ED
:104150006034DFF8B8C0CDE902C4CDE900751AF0CB
:10416000E1FF04004DD001F00BFF302249460490DE
:104170001AF0D0FE0498282225493430FCF732F892
:104180000498234F5C30083FC0F80880068400265E
:1041900046620661C6627968016004A801F03AFFD0
:1041A00005A9204600F07AF91A4841F28271039677
:1041B0000094CDE90110BDF91E00BDF91A10BDF93A
:1041C0001C20431ABDF918005B1C121A521C1AF06D
:1041D000A9FF06467868416820468847204601F0D6
:1041E000CFFE0490866604A801F014FF42F204009A
:1041F000054202D120461BF0FCF85146204600F053
:10420000DEF80AB02046BDE8F0870000133F020840
:10421000E4090020C946020830B504468BB00068A6
:1042200001F0AEFE009090F87C10246A006FC1F39C
:10423000C00508B101F0A4FE0690E0680290206974
:104240000390A088401EADF81000E089ADF8120080
:104250002089401CADF81400608AADF81600BDF846
:104260000800401CADF80800BDF80A00401CADF87D
:104270000A00BDF80C00401EADF80C000098406B21
:1042800003F06CFB009808AA02A9B0F95A3006980E
:1042900003F05AFE009800EB8500806B07F0AAFC43
:1042A000009800EB8500006C07F0DCFC08AB02AA6C
:1042B00004A906981AF054FD684601F0ABFE069872
:1042C00010B106A801F0A6FE0BB0002030BD0028FA
:1042D00001D022F081B970472DE9FF410D465FEA18
:1042E000000849D001F04CFE009000F03EF907466E
:1042F0000098B0F95610C4696E1A2FE0204601F0FC
:104300003FFE0390D0E90010CDE901100098B0F90C
:104310000210B0F900004A42414201A803F0A4F99A
:104320000099BDF90600B1F95610884211D1BDF9C6
:104330000A10081A401CB8420BD10398324690F874
:104340002800000601D5714200E0114620461BF00E
:10435000F4FC0398046A03A801F05CFE002CCDD1A4
:104360000098A0F85650684601F054FE404600F010
:1043700074F940461BF061FCBDE8FF8138B50C467E
:1043800000280CD001F0FCFD0090816CA14203D00C
:104390008464806E1BF051FC684601F03BFE38BD22
:1043A00038B50D46040009D001F0EAFD009005661D
:1043B000684601F02FFE20461BF03FFC38BD7CB55F
:1043C0000D46040019D001F0DBFD0090006F019054
:1043D000684601F01FFE294601A804F0D3FB00281F
:1043E0000BD0204601F0CCFD009001990167684692
:1043F00001F010FE20461BF020FC7CBD2DE9FC479F
:104400000C465FEA000947D001F0BAFD0090428EE9
:1044100014B142F0200501E022F02005AA4238D074
:104420004586484600F019F9009EF4691FE02046D1
:1044300001F0A6FD0190076AB0F90200B6F902107A
:10444000A0EB010801A801F0E5FDB6F956104145C1
:104450000CD1B06EA04209D096F8320080062046FA
:1044600002D51BF001FF01E01BF02EFB3C46002CA7
:10447000DDD1009890F87C00400607D5A806484694
:1044800002D51BF0F1FE01E01BF01EFB48461BF0BD
:10449000D4FB684601F0BEFDBDE8FC872DE9F34F73
:1044A00085B000270C46B846059801F069FD0090DC
:1044B000C06D0121856805982A68904782462A6860
:1044C00003210598904704902A6802210598904797
:1044D00003902A68002105989047064600981CF032
:1044E00045F8834600981CF048F88146009890F8FB
:1044F0003210890601D5B0F9588000F036F805462B
:104500000098C06E10B11BF0FCF80746258067804C
:10451000A4F804A0049AABEB020006EB0802401ECC
:104520002A4420813A44E280039BA9EB0302521EF5
:104530006281A4F80CA020827019E681401E60827E
:10454000684601F067FDB4F90C000190B4F9100061
:10455000029002AA01A9059800F039F80198A081FB
:104560000298208207B0BDE8F08F10B50146002008
:1045700091F83220920607D5B1F95400002803D1F2
:10458000486B02F066FC801C10BD70B58AB00C460A
:10459000054601F0F5FC0990C06D866809A801F098
:1045A00039FD009534B1012C06D0022C0BD0032C20
:1045B00004D10AE0182000E01620019071686846D6
:1045C00088470AB070BD1520F7E71720F5E72DE9F9
:1045D000FC4790468946044601F0D2FC0090C16D2C
:1045E000056868468E6801F015FD32680021204696
:1045F0009047064620461AF099FF2F1404462DB224
:1046000027E001F0BDFC0190B0F90010B0F90420E2
:10461000B0F90230491B521BDB1BB34212D190F898
:104620002800000607D5D8F8000088420ADB491E9A
:10463000C8F8001006E0D9F80000904202DC521CD5
:10464000C9F8002001A801F0E5FC20461AF0FEFFA1
:104650000446002CD5D1BDE8FC8770B586B006466F
:1046600001F08EFC0590D0E91A4505A801F0D2FCB6
:1046700054EA050026D069463046FFF70FFFACB17B
:10468000BDF90620BDF9041020461BF02DFBBDF935
:104690000A00BDF90610421ABDF90800BDF9041060
:1046A000521C411A491C20461BF069FD002D09D0FF
:1046B000BDF90600BDF90210421ABDF904102846E2
:1046C0001BF012FB06B070BD2DE9F04304464068B4
:1046D00085B006461AF0C1FF814601F051FC0090FA
:1046E000D0F88080876C456E684601F093FC2068A6
:1046F000172859D008DC0E2837D00F280BD01428E3
:1047000052D015283AD14FE01E2818D01F2827D0A4
:10471000222833D146E06FF07040874204D03846FB
:1047200007F068FA01F0C0FE002D12D0D4E90212A1
:104730002068CDE90106CDE9031201A822E0E06876
:10474000002806D05FEA080006D0B04504D01BF070
:1047500067FC05B0BDE8F08330461BF0AFFC16E007
:10476000214648461AF0E6F9F3E7E0684168002977
:1047700004DD00680928EFD00A2805D0A5B120463D
:10478000C4F80490A847E4E730461BF09FFC0446B9
:10479000484601F0F5FB0090C0F88040684601F003
:1047A00039FCD6E7E760D4E720461AF06BFDD0E786
:1047B0002DE9F0470126002491460F468046FF2848
:1047C0000ED0A8F10100072850D8122005F0C8F932
:1047D0000121A8F10102914057B3012F2BD02CE009
:1047E000012F01D087B141E0FF21142005F008FA24
:1047F000122005F0B5F9FF282AD02046641C0026B7
:10480000E4B20328F0D90DE00021142005F0F8F9F6
:10481000122005F0A5F9D8B12046641C0026E4B2A8
:104820000328F1D94A46394613A028F029F81DE09B
:1048300020EA010501E0CDB20543A84216D0294681
:10484000142005F0DDF9122005F08AF9854201D126
:1048500001260BE02046641C0026E4B20328EED9B2
:104860004B463A4641460CA028F00AF848462EF03E
:1048700053F93046BDE8F087464E20525920414C4E
:104880004C203D20253032642C20253034646D735B
:10489000284E47290A000000464E20525920253054
:1048A000326420203D20253032642C2025303464B1
:1048B0006D73284E47290A002DE9FF5F5DA027F0A0
:1048C000DFFF012000240090A9E05F4800EB4410C6
:1048D00009F0DAFA5D4830F81410A0B200F03EFC9E
:1048E00082465B480078012867D15A4830F81400A6
:1048F000002862D0401E1FFA80FB5748574900EB42
:1049000084005A4690ED000ABCEEC00A10EE100A70
:1049100080B2019031F81B905149544831F81B8006
:10492000504931F81B5050A1FDF712FB4A464EA1E9
:104930000020FDF70DFB42464BA10020FDF708FBD0
:104940002A4649A10020FDF703FB47A10020019A58
:10495000FDF7FEFA454946A027F092FF00252F46B5
:1049600021E04749CBEB4B12C2EB0B2001EB0011CE
:1049700003914449002601EB4010029010E0019899
:1049800080B3029850F82500FBF711FF41EC100BA3
:104990003DA153EC102B0020FDF7DAFA6D1C761CBC
:1049A0004645ECDB7F1C4F45DBDB3048FBF74CFC1E
:1049B00001462E4AA62030F0EDF8BAF1010F1AD0C8
:1049C000BAF1000F1AD041215FF0530009F074FBD7
:1049D00006F066F88008C0072AD01D480078012834
:1049E00018D01BE0FFE703981FA130F91520002025
:1049F000FDF7AEFAD2E741210120E7E7412100208F
:104A0000CDF800A009F058FB06200FF08FFE00073C
:104A10000AD0DDE71E480078082809D0641C1D482C
:104A200000888442FFF651AF009804B0BDE8F09FC3
:104A30000320FAE73E3E2046756E635F496E737051
:104A4000284175746F290A00684651D0E85C51D03E
:104A500009050020687351D0F06351D0E0045FD0A5
:104A600044055FD0084367D025642C00000026D0A1
:104A700050616E656C20496E666F3A25730A0000BE
:104A8000A8055FD0C8C461D0252E33662C00000075
:104A900008050020644651D02DE9F04721A027F0F9
:104AA000EFFE01250024244EDFF890A033E02448D7
:104AB00000EB441009F0E8F9DFF88890A0B239F86B
:104AC000141000F04BFB054601280FD04FF05301A6
:104AD0007DB1532009F0F0FA1B4F4FF0000805207C
:104AE000FEF72CFA05F0E0FF28B10CE0532101207D
:104AF000F0E70020EEE738780128F0D13078002880
:104B0000EDD086F80080012804D00428D6D00828EB
:104B1000E5D104E0641CBAF800008442C7DB2846F3
:104B2000BDE8F0873E3E2046756E635F496E737048
:104B30002853746570290A0008050020644651D086
:104B4000684651D0E85C51D0090500202DE9F04FAE
:104B5000C7B09E49002029F093F950B99C4C01221E
:104B60009C48A16929F0A0F938B10021084629F034
:104B700087F9002047B0BDE8F08FFFF705F996A050
:104B8000A16927F07DFE4FF480716846FBF751FB69
:104B90004FF000094C46F7E0B9F1000F3DD0641C1E
:104BA000B42C7CDC91A16846FBF788FB8FA1002028
:104BB000FBF784FB82468DA10020FBF77FFB46902C
:104BC0008AA10020FBF77AFB459088A10020FBF723
:104BD00075FB449085A10020FBF770FB439083A1F7
:104BE0000020FBF76BFB429080A10020FBF766FBE7
:104BF00041907EA10020FBF761FB40907BA100204B
:104C0000FBF75CFB83467A4800EB44165046FBF703
:104C10001BFB2027804600250AE04FF00109B3E086
:104C2000781E854204D170190021FFF755F80EE077
:104C3000454578D21AF805100A2974D00D2972D08A
:104C400016EB0500FFF748F86D1CBD42E8D3694834
:104C500000EB440546982EF02FFC01462846FFF74E
:104C600057F8654800EB44054598FBF7BAFB81B25D
:104C70002846FFF74DF8614800EB44054298FBF7E2
:104C8000B0FB81B22846FFF743F85D485DA100EB19
:104C900084054198FBF712FB1022002100E085E01B
:104CA000FBF72EFBC1B22846FFF716F855A10020EE
:104CB000FBF704FB10220021FBF722FBC1B2681CAA
:104CC000FFF70AF84FA10020FBF7F8FA10220021A5
:104CD000FBF716FBC1B2A81CFEF7FEFF43A10020A4
:104CE000FBF7ECFA10220021FBF70AFBC1B2E81C2B
:104CF000FEF7F2FF444800EB8405409822F0B4FF31
:104D000051EC100BFBF796FD01462846FFF71EF805
:104D10003E4800EB04165846FBF796FA10278046EB
:104D200000250BE0FFE7701900218BE7781E854214
:104D300004D170190021FEF7CFFF0EE0454530D2B7
:104D40001BF805100A292CD00D292AD016EB0500D6
:104D5000FEF7C2FF6D1CBD42E8D32D48022200EBD6
:104D600044052CA14498FBF79AFAE8B100212846A3
:104D7000FEF7CEFF284800EB44054398FBF731FBD4
:104D800081B22846FEF7C4FF124A4FF4807168468C
:104D900028F0D2FE00287FF4FFAEB42C06DCA1B2CE
:104DA00005E070190021D3E70121E0E7B4211048A4
:104DB0001C30FEF7ADFFFEF787FF064828F052FED5
:104DC0000021084629F05CF80120D3E6B80C002049
:104DD00090050020E810002046756E635F536176F1
:104DE0006520203A2025730A000000002C000000F6
:104DF00048461908E65C19084E5E1908B65F19089E
:104E00001C6119082E000000EC631908B06619082F
:104E1000FE7119084F4B0000667319082DE9F04F19
:104E20008DB00446FEF7B0FFB4A12046FBF746FA6A
:104E30000024DFF8CC92DFF8CCA20090DEE0AFA136
:104E40000020FBF73BFA8346ACA10020FBF736FAC3
:104E50000B90AAA10020FBF731FA0A90A7A100202D
:104E6000FBF72CFA0990A5A10020FBF727FA089080
:104E7000A2A10020FBF722FA0790A0A10020FBF7D7
:104E80001DFA06909DA10020FBF718FA05909BA142
:104E90000020FBF713FA049098A10020FBF70EFA0C
:104EA000039096A10020FBF709FA029093A100203D
:104EB000FBF704FA019009EB44165846FBF7C4F9D6
:104EC00020278046002507E0781E854204D170190E
:104ED0000021FEF701FF0EE0454560D21BF80510EA
:104EE0000A295CD00D295AD016EB0500FEF7F4FE16
:104EF0006D1CBD42E8D3844800EB44050B98FBF7DA
:104F000070FA81B22846FEF703FF804800EB4405A3
:104F10000A98FBF766FA81B22846FEF7F9FE7C484C
:104F200000EB44050798FBF75CFA81B22846FEF7D0
:104F3000EFFE784800EB84050698FBF752FAC1B201
:104F40002846FEF7C9FE0598FBF74BFAC1B2681C6C
:104F5000FEF7C2FE0498FBF744FAC1B2A81CFEF7A4
:104F6000BBFE0398FBF73DFAC1B2E81CFEF7B4FEA6
:104F7000694800EB8405029822F076FE51EC100B94
:104F8000FBF758FC01462846FEF7E0FE0AEB041644
:104F90000198FBF759F91027804600250AE070199F
:104FA0000021A3E7781E854204D170190021FEF785
:104FB00093FE0EE0454533D20198415D0A292FD07A
:104FC0000D292DD016EB0500FEF786FE6D1CBD42A7
:104FD000E8D3524800EB44050998FBF702FA81B286
:104FE0002846FEF795FE4E4800EB44050898FBF76F
:104FF000F8F981B22846FEF78BFE641C0098FBF797
:10500000F0F9A0423FF71BAF0098FBF7EAF93C4CE0
:10501000241FB42807DC0098FBF7E3F981B203E012
:1050200070190021D0E7B4212046FEF771FEFEF78B
:105030004BFE3C4D20882880B0F5347F01D90020FC
:10504000288000244AE000BF374809EB441200EBF7
:10505000441036A122F0DEFD354866003044354A62
:10506000B0F8E81C22F81410334AB0F8501E22F8A9
:1050700014103249B0F8B80F21F814002448304910
:10508000483000EB840090F8202101F8242001EB47
:10509000840190F821214A7090F822218A7090F8BA
:1050A0002321CA7090EDFC0A26480AEB041200EB9B
:1050B00084001EA180ED000A234800EB041022F0BA
:1050C000A9FD2248224A3044B0F8001222F81410F8
:1050D0002049B0F8680321F81400641C2888844231
:1050E000B2DB1D4901200A46087001466B202FF0F3
:1050F00051FD0DB00120BDE8F08F00002C00000034
:1051000068461908C0661908E85C1908505E190855
:10511000B85F190820611908F063190800721908AE
:1051200068731908644651D0684651D02573000051
:1051300000501908E85C51D0505E51D0B85F51D092
:10514000206151D0F06351D0C06651D00070190871
:10515000007251D0687351D06429002010B50F2916
:105160000ED2DFE801F00D080D0D0D0D0F170D0D1E
:105170000D1B1F23270011A008F046FF13A005E018
:105180000EA000E014A008F03FFF17A027F078FB66
:10519000002010BDBDE810400AF070BEBDE8104010
:1051A0000DF02EBABDE81040FEF73CBABDE8104045
:1051B00011F062BCBDE8104008F014BD556E646586
:1051C00066696E65204D6F64756C6500556E204490
:1051D0006566696E650A0000556E446566696E65B0
:1051E000204D6F64756C6500556E446566696E652B
:1051F0000A0000002DE9F047DFF88880DFF888908A
:10520000224F234C16000D464FF0000002D0012E15
:105210001ED035E006200FF089FA00F00F000128BB
:1052200002D00020BDE8F0872188A8F80010412DA9
:1052300002D0532D07D008E0FFF73EFB89F80000AD
:10524000032813D001E0FFF727FC2088388017E0FF
:105250002288A8F80020412D02D0532D0AD00BE05F
:10526000FFF72AFB89F80000032805D12088388041
:105270000320D7E7FFF710FC2188398000B900260A
:105280003046CFE73A0500201F0500203C050020EE
:10529000945E56D02DE9F0430446C56887B0904629
:1052A0008946002002F058FB064625B1287910B146
:1052B00046F0020001E026F0020002F04DFB2069FA
:1052C000012558B1D4E902128DE8260003956388C0
:1052D0002288046841464846A0471EE0124F134BFF
:1052E000214638681B68427CE068984730B9E088FE
:1052F000012801D0002001E03868806BA288E38893
:10530000A1680095CDE90410CDE9023201956388CA
:1053100022884146484605F089FE07B03046BDE880
:10532000F04302F019BB0000A8070020A0070020EE
:1053300010B5002002F00AFB6FF07F4002F00AFB7C
:10534000012002F057FB002002F05CFB002002F07D
:1053500063FB002002F000FB0448006802F0FEFA44
:10536000BDE81040002002F021BB0000A40700208F
:10537000F0B50023012403270D6804FA03F2154059
:10538000954242D1D0F800C05E0007FA06F52CEA3B
:10539000050CC0F800C091F804C0D0F800E00CFA89
:1053A00006FC4CEA0E0CC0F800C091F804C0BCF139
:1053B000010F02D0BCF1020F1FD1D0F808C02CEAB7
:1053C000050CC0F808C091F805C0D0F808E00CFA48
:1053D00006FC4CEA0E0CC0F808C0D0F804C02CEA59
:1053E000020CC0F804C0426891F806C00CFA03FC35
:1053F0001FFA8CFC42EA0C024260C268AA43C260F7
:10540000CA79C568B2402A43C2605B1C102BB3D373
:10541000F0BD00002DE9FF5F01208DF804000020A1
:105420008DF8060003208DF8050001208DF8070097
:1054300000208DF80C008DF80E0003208DF80D0073
:1054400001208DF80F0001460EF03AFF0120009078
:105450006946B848FFF78CFF022000906946B548BE
:10546000FFF786FF4FF020086946B248CDF800806C
:10547000FFF77EFF40256946AE480095FFF778FFAD
:1054800080266946AB480096FFF772FFAC0069467C
:10549000A8480094FFF76CFF04276946A6480097C8
:1054A000FFF766FF012104200EF00AFF02200290A0
:1054B00002A9A248FFF75CFF4FF0100A69469F4817
:1054C000CDF800A0FFF754FF69469C48CDF8008056
:1054D000FFF74EFF694699480095FFF749FF694677
:1054E00096480096FFF744FF694694480094FFF7FA
:1054F0003FFF4FF4007969469048CDF80090FFF7E0
:1055000037FF2001029002A98C48FFF731FF4FF4CA
:10551000005869468948CDF80080FFF729FF01212E
:1055200008200EF0CDFE694685480097FFF720FF62
:105530004FF0080B69468248CDF800B0FFF718FF1E
:1055400069467F48CDF800A0FFF712FF69467C4806
:105550000095FFF70DFF694679480096FFF708FFB1
:10556000E000009069467648FFF702FF20010090B6
:1055700069467348FFF7FCFE69467148CDF8008024
:10558000FFF7F6FE012110200EF09AFE69466D48E5
:105590000097FFF7EDFE012140200EF091FE6946D5
:1055A00069480097FFF7E4FE69466748CDF800B008
:1055B000FFF7DEFE69466448CDF80090FFF7D8FE9D
:1055C00069466148CDF80080FFF7D2FEA701694621
:1055D0005D480097FFF7CCFE012180200EF070FEA1
:1055E00069465A48CDF800A0FFF7C2FE01212046C7
:1055F0000EF066FEDFF858A169465046CDF800B0BF
:10560000FFF7B6FE694650460095FFF7B1FE6946C2
:1056100050460096FFF7ACFE694650460094FFF7EF
:10562000A7FEE000009069465046FFF7A1FE012169
:10563000404800F0A6F802213E4800F0A2F841469A
:105640003E4800F09EF849463F4800F09AF8102185
:105650003E4800F098F82146364800F094F82021A2
:10566000344800F08EF84021324800F08AF880215A
:10567000304800F086F88021314800F084F8E100DD
:105680002F4800F07EF821012D4800F07AF84146BD
:105690002B4800F076F84021294800F074F80421E6
:1056A000274800F06EF80821254800F06AF810211C
:1056B000234800F066F81021204800F062F820210D
:1056C0001E4800F05EF840211C4800F05AF8802186
:1056D0001A4800F056F82146184800F052F849469A
:1056E000164800F04EF80421174800F04CF8082145
:1056F000154800F048F84146134800F044F8394690
:10570000114800F040F80821504600F03CF84021D4
:10571000504600F038F88021504600F034F8214619
:10572000504600F030F8E100504600F02CF8BDE89B
:10573000FF9F0000000002400004024000080240F9
:10574000000C02400010024000180240001C024001
:10575000002002404B07DB0E9A40C90810B500EB51
:105760008100016A0F249C40A1430162016A114338
:10577000016210BD0246002012690A4200D00120D9
:105780007047418370470183704742694A404261D4
:1057900070470000014AC2E9000170474C07002031
:1057A000014AC2E90001704754070020014AC2E9DA
:1057B000000170475C070020014AC2E90001704700
:1057C00064070020014AC2E9000170471008002068
:1057D0002DE9F04FDFF828B191B04FF0FF35DBF83D
:1057E0000030B3F922100691DE69B3F92490F46910
:1057F000A189814206D8E289824203D3471AD4F8AC
:10580000008012E0D4E9018100296FD00A88824229
:105810006CD84D88854269D3801A82B2486800EB03
:105820008200B0F90070B0F90250781C5ED0307E72
:10583000A17C10FB01FA217CCDE90801B3F92A60B3
:10584000304606F037FAC0B20E90DBF8000007FBD6
:105850000A81A37C826B0127CDE90412CDE9027392
:10586000C069DDE90832C17E807ECDE9000149468C
:10587000069805F0DBFB681C18D046F0020006F025
:1058800019FADBF80000A37C05FB0A81826BCDE9E5
:105890000273CDE90412C069DDE90832C17E807E61
:1058A000CDE900014946069805F0C0FBDBF8000091
:1058B0005D46C069417E007E814214D9022E12D01D
:1058C00086F0040006F0F6F92868C069027EC37EFF
:1058D00012FB0391437E857E099A06984B4402FB96
:1058E000050205F0A7FD0E9806F0E4F9DBF80000CC
:1058F000627C418C1144418411B0BDE8F08F0000FE
:10590000A807002004480068C069C06909B1027C8A
:105910000A60407C70470000A80700200220088031
:105920007047C06982898A4202D8C2898A4210D2ED
:10593000806880B102888A420DD843888B420AD39E
:10594000406800EB8100A0EB8200B0F90000002865
:1059500001DB012070470020704700002DE9F04373
:105960002F4C034687B020681946B0F92A80C069D9
:10597000C06900F084F800284ED041680088181AE9
:1059800001EBC0054046AE7806F094F981462068E8
:105990006A680123816BCDE90236CDE90421C16932
:1059A000CB7E8A7ECDE900230B7EB0F924102A78C5
:1059B000B0F9220005F03AFB2068C069477E067EF8
:1059C000B7421DD9C07E47434643B8F1020F17D0F6
:1059D00001F0D1F9804601F0B1F901F0BBFF216877
:1059E0002A78CB69B1F92200DB7E12FB0302B1F900
:1059F0002410CB19314405F01DFD404601F0AAFFEB
:105A0000484606F057F920686A78C369B0F9221051
:105A10009B7E12FB0311418407B0BDE8F0830000B8
:105A2000A807002030B50F4C05460B4620682946D4
:105A3000C069C06900F023F8002811D041680088CF
:105A400024682A1A0120E46900EBC200085CA47EE5
:105A500010FB04F0002B03D011F8321061431960E1
:105A600030BD0000A807002001200880704700B565
:105A7000C06900F004F8002800D0012000BD06E055
:105A800002888A4202D842888A4202D2806800286C
:105A9000F6D170472DE9FF5F0546DDF838800C46EA
:105AA0004FEA4800A2EB05019A469146091A7BD4B9
:105AB000AAEB0401081A77D43C484FF0000B0068A9
:105AC00090F8711019B910F870BF042101701AF024
:105AD00013FD47191AF01EFD06191AF00DFD00EB13
