:020000040802F0
:1000000098970120C1010208B57A030899E802080F
:10001000E176030865160208E54F040800000000B9
:10002000000000000000000000000000E1C903081B
:10003000C954020800000000D19D03086DDE0308CA
:10004000DB010208DB010208DB010208DB01020818
:10005000DB010208DB010208DB01020861910208F2
:10006000DB010208DB010208DB010208DB010208F8
:10007000DB010208DB010208DB010208DB010208E8
:10008000DB010208DB010208DB010208DB010208D8
:10009000DB010208DB010208DB010208DB010208C8
:1000A000DB010208DB010208DB010208DB010208B8
:1000B0004DE80308DB01020861E80308DB010208E0
:1000C000DB010208DB010208DB010208DB01020898
:1000D000DB010208FD090408010A0408030A0408F8
:1000E000DB010208DB010208DB010208DB01020878
:1000F000DB010208DB010208DB010208DB01020868
:10010000DB010208DB010208DB010208DB01020857
:10011000DB010208DB010208DB010208DB01020847
:10012000DB010208DB010208DB010208DB01020837
:10013000DB010208DB010208DB010208DB01020827
:10014000DB010208DB010208DB010208457E03082F
:10015000DB010208DB010208DB010208DB01020807
:10016000DB010208DB010208DB010208DB010208F7
:10017000DB010208DB010208DB010208DB010208E7
:10018000DB010208DB010208DB010208DB010208D7
:10019000DB010208DB010208DB010208DB010208C7
:1001A000D1380308DB0102080D4D0208DFF80CD03E
:1001B00000F04EFD004800473D7805089897012063
:1001C0000648804706480047FEE7FEE7FEE7FEE7F1
:1001D000FEE7FEE7FEE7FEE7FEE7FEE77DDF03085A
:1001E000AD0102080649074A0868504343F2390244
:1001F00010440860400870470149086070470000DB
:10020000940A00206D4EC64110B5431A934209D29C
:100210008318881803E010F8011D03F8011D521E11
:10022000F9D210BD40EA01039B0703D009E008C9D9
:10023000121F08C0042AFAD203E011F8013B00F8AB
:10024000013B521EF9D210BDD2B201E000F8012BE1
:10025000491EFBD270470022F6E710B513460A4646
:1002600004461946FFF7F0FF204610BD421C10F867
:10027000011B0029FBD1801A704710B5002200E055
:10028000521C835C8C5CA34201D1002BF8D1D8B204
:10029000E1B2401A10BD30B504460020034600E02C
:1002A0005B1C934203D2E05CCD5C401BF8D030BDB8
:1002B000034611F8012B00F8012B002AF9D118464A
:1002C000704730B505460020034600E05B1C9342B2
:1002D00005D2EC5CC85C201A01D1002CF6D130BDEF
:1002E00070B50F4D00B92868002412E00A4602E0FC
:1002F0009E4203D0521C1378002BF9D1DAB222436C
:1003000005D02BB124B1002100F8011B04E0044604
:10031000401C0678002EE9D12860204670BD000000
:10032000980A00202DE9F04791460F468046044682
:10033000002614F8015B2DB100F034FB0068405D2D
:10034000C007F6D12B2D02D02D2D18D0641E4A46A1
:100350003946204600F033FB27B13968A14201D16C
:10036000C7F8008071054FF002040BD54042002809
:1003700003DD30F0EBF90460A007BDE8F08746F438
:100380008066E4E70028F8DA30F0E0F904606FF006
:100390000040F2E72DE9F05F93460F4680460446A1
:1003A000002630F0D3F9D0F80090824614F8015BB3
:1003B0002DB100F0F7FA0068405DC007F6D12B2D93
:1003C00002D02D2D1AD0641E0021CAF800105A4602
:1003D0003946204600F0F3FA014627B13868A042BA
:1003E00001D1C7F80080DAF80000022809D0CAF865
:1003F0000090700505D54842BDE8F09F46F4806640
:10040000E2E70846F8E770B5064630F09FF9046861
:1004100005460A2200213046FFF784FF2C6070BD9C
:100420002DE9FE4F804681EA0300C00F0C46009084
:1004300021F0004123F00045B8EB0200A94105D2AC
:100440004046214690461C460B46024623F000409B
:10045000104347D0270DC7F30A00C3F30A51029097
:10046000401A019040286BDAC3F3130040F4801B5C
:100470000098924620B10023D2EB030A63EB0B0BEA
:1004800001985946C0F14002504600F05AFA06461B
:100490000D4650465946019A00F072FA10EB0800DA
:1004A0006141002487EA115284EAE7731A4340D07D
:1004B000009A62B3019A012A4FEA075215DC001B29
:1004C00061EB02014FF0004202EA0752CDE900421F
:1004D000001C41F5801132462B4600F053FB03B05F
:1004E000BDE8F08F40462146F9E7001B61EB0201B1
:1004F000001C41F5801300185B412018A2F500177D
:1005000047EB030140EAD570B6196D4111E06D0863
:100510004FEA360645EAC0754FEA0752001B61EB09
:100520000201001C41F5801149084FEA3000001912
:10053000514132462B4603B0BDE8F04F00F013BBEB
:100540000098012240000023D0EB020263EBE0732D
:10055000009821464FEAE074B8EB000061EB04011B
:10056000E9E783F000435BE781F0004158E72DE9BC
:10057000FE4F81EA030404F0004421F0004100949E
:100580004FF0000B23F0004350EA01045ED052EA22
:1005900003045BD0C3F30A54C1F30A552C44A4F2FC
:1005A000F3340194A0FB0254C1F3130141F4801110
:1005B000C3F3130343F4801301FB024400FB034E17
:1005C000840A970A44EA815447EA8357A4FB0768E0
:1005D00002958D0A05FB07854FEA932C04FB0C540A
:1005E0002705029D4FEA065847EA1637B5EB08057E
:1005F0006EEB070C870E920E47EA811742EA8312D0
:10060000A7FB0201B6EB0B0164EB00042B0D43EAE0
:100610000C335E1844EB1C50DA465146E7FB0201EE
:10062000C5F313044FEA0B3343EA14534FEA043281
:10063000019C43EA0603A4F10C040294009CCDE95A
:1006400000B400F09FFA03B0BDE8F08F002001462F
:10065000F9E72DE9F04D81EA030404F0004B21F0A5
:10066000004514464FF0000A23F0004150EA05020D
:1006700020D054EA01021DD0C5F30A570246C5F343
:100680001303C1F31300C1F30A5640F4801543F479
:100690008013A7EB0608101BD64608F2FD3873EB53
:1006A000050002D308F1010801E092185B41B8F19E
:1006B000000F03DA00200146BDE8F08D00204FF462
:1006C0008011064684460EE0171B73EB050705D321
:1006D000121B63EB050306434CEA010C49084FEA81
:1006E000300092185B4150EA0107EDD152EA030055
:1006F00012D082EA040083EA0501084305D0101BEA
:10070000AB4106D20122002306E000224FF0004355
:1007100002E06FF0010253101AEB06004CEB085197
:1007200010EB0A0041EB0B01BDE8F04D00F01BBAE5
:100730000EB5C10F80EAE0700844CA07002140F2FC
:1007400033438DE80E000A460B4600F01BFA03B057
:1007500000BD0EB540F2334102910021CDE90011F8
:100760000A460B4600F00EFA03B000BD0EB540F28B
:10077000334202920022CDE90022134600F002FA31
:1007800003B000BD70B5C1F30A5201F0004500246A
:10079000C1F3130140F2FF3341F480119A4201DAB0
:1007A000002070BD40F233439A42A2F2334203DC90
:1007B000524200F0D5F800E090402C43F1D0404286
:1007C00070BDC1F30A5210B5C1F3130140F2FF33FB
:1007D00041F480119A4201DA002010BD40F2334307
:1007E0009A42A2F2334203DC524200F0B9F810BD43
:1007F000904010BD00F0004230F000400AD0C10D22
:1008000001F56071C0F3160042EA0151C2084007C9
:1008100011437047002001467047000030B5041EA8
:1008200071F1000404DB4FF00044404264EB01012D
:10083000141E73F1000405DB1C464FF000435242C6
:1008400063EB04038B4208BF824230BD30B5041E07
:1008500071F1000404DB4FF00044404264EB0101FD
:10086000141E73F1000405DB1C464FF00043524296
:1008700063EB0403994208BF904230BD01F000438E
:1008800030B421F0004150EA010206D00A0DA2F571
:100890006072C1F31301002A02DC30BC00207047F3
:1008A000440F44EAC104C100E01830BC00EBC25060
:1008B00000F022B930B50B46014600202022012469
:1008C00009E021FA02F59D4205D303FA02F5491B1E
:1008D00004FA02F52844151EA2F10102F1DC30BD34
:1008E0002DE9F05F0546002092469B468846064665
:1008F000814640241BE0284641464746224600F0F8
:100900002FF853465A46C01A914110D31146184643
:10091000224600F016F82D1A67EB01084F462246D2
:100920000120002100F00DF817EB00094E41201EB8
:10093000A4F10104DFDC484631462A464346BDE8BF
:10094000F09F202A04DB203A00FA02F100207047D1
:100950009140C2F1200320FA03F3194390407047FD
:10096000202A04DB203A21FA02F00021704721FA04
:1009700002F3D040C2F1200291400843194670476B
:10098000202A06DBCB17203A41FA02F043EAE07353
:1009900006E041FA02F3D040C2F120029140084340
:1009A00019467047004870472862060810B504468B
:1009B000FFF7F8FF0068005D00F0010010BD2DE9B1
:1009C000F05F82460078002715468B460AF1010445
:1009D000B946302801D09DB113E014F8010B01276E
:1009E000782803D0582801D045B10AE00DB1102D68
:1009F00007D10027102514F8010B02E0082500E0BC
:100A00000A250026B0460EE005FB080005FB06F1AE
:100A1000012701EB10461FFA80F8B6F5803F00D39E
:100A2000B94614F8010B294600F024F90028EBDA46
:100A3000BBF1000F05D00FB1641E00E05446CBF8A7
:100A40000040B9F1000F06D02FF080FE02210160B6
:100A5000C81EBDE8F09F48EA0640FAE70FB400233D
:100A600000B589B00CA900910B996FF00042CB60E2
:100A70001E4B06931E4B07930423CDE901321D4AFA
:100A8000089202466B46002000F096F909B05DF826
:100A900014FB70B586B006464FF0FF300091CDE9EB
:100AA0000101002015460C4604903246694604A810
:100AB000FFF7D4FF02460498211825B108B1084673
:100AC00000E020462860049800280DD0002A02DDAE
:100AD0000098884208D0081B0094CDE901043246F2
:100AE000694604A8FFF7BAFF06B070BDF10F02080F
:100AF0000F100208AD0902080029A8BF7047401C6A
:100B0000490008BF20F00100704710B4B0FA80FC23
:100B100000FA0CF050EA010404BF10BC704749B160
:100B2000CCF1200421FA04F411FA0CF118BF0121D0
:100B300021430843A3EB0C01CB1D4FEA00614FEAB0
:100B4000102042BF002010BC704700EBC35010447F
:100B50000029A4BF10BC7047401C490008BF20F00A
:100B6000010010BC704710B5141E73F1000408DAC0
:100B7000401C41F1000192185B411A4301D120F061
:100B8000010010BD2DE9F04D92469B4611B1B1FA1E
:100B900081F202E0B0FA80F220329046FFF7D1FEF7
:100BA00004460F4640EA0A0041EA0B0153465A4602
:100BB000084313D0114653EA010019D0C8F140028E
:100BC0005046FFF7CDFE05460E4650465946424672
:100BD000FFF7B7FE084305D0012004E02046394660
:100BE000BDE8F08D0020054346EAE0762C4337430C
:100BF0000A986305E40AA0EB08000022FD0A44EA13
:100C000047540A3002D500200146E9E701051019D2
:100C10006941DDE9084500196941BDE8F04DA2E7E9
:100C2000C1F30A52C1F3130140F2FF3341F48011C2
:100C30009A4202DA00200146704740F233439A425A
:100C4000A2F2334202DC5242FFF78ABEFFF779BEBE
:100C5000064C074D06E0E06840F0010394E8070009
:100C600098471034AC42F6D3FFF7A4FA3C66060866
:100C70005C6606083A2800D2303820F02002412A6B
:100C800001D3A2F13700884201D34FF0FF30704703
:100C90002DE9FF4F087883B09946FF2805D0491CFD
:100CA0002D2804D00024002008E000200BE00124BF
:100CB000F9E700EB800003EB4000491C0B78FF2BA9
:100CC000F7D104B1404200230293147819461D461F
:100CD0002D2C01D02B2C04D1521C2D2C13D00024F0
:100CE0000294AA461478FF2C0FD00A25A3FB05789E
:100CF00001FB05814FF0000C03FB0C11521CE319A2
:100D00004AEB0101EEE70124EAE7814453EA0100DE
:100D100002D019F5C87F06DA03980021C0E9001156
:100D200007B0BDE8F08F0025AE4E2F46DFF8B88241
:100D30001846FFF71BFDCDE90001B9F1000002DA0A
:100D4000C9F1000400E004460023A74A1AEB030B94
:100D500042EB045A12E0E00707D02A4633463846F1
:100D60004146FFF704FC074688462A4633461046AC
:100D70001946FFF7FCFB05460E466410002CEAD12D
:100D8000DDE90001B9F1000F5A46534606DAFFF7D4
:100D900060FC3A464346FFF75CFC05E0FFF7E7FBE3
:100DA0003A464346FFF7E3FB029A0AB181F000415D
:100DB000039AC2E90001B3E72DE9FF4F1F468DB04A
:100DC000D7E901464FF0FF382E2045464FF0000985
:100DD0000B90B9696D1C0E988847396A824688471E
:100DE0000028F6D1BAF1FF3F0AD024F4D064002ED7
:100DF00011DDBAF12B0F08D0BAF12D0F0BD102E0A3
:100E0000404611B08DE744F48064B9696D1C0E98BA
:100E100088478246761E6946600501D52D2000E090
:100E20002B208DF8000001F1010B0DF1200809E0E5
:100E3000B9696D1C0E98884782460F9844F4007477
:100E4000761E0560002E02DDBAF1300FF0D00B994E
:100E50008A453ED144F0800406E00F99681CA9F150
:100E6000010944F400740860B9696D1C761E0E987F
:100E7000884782463028F0D02BE00B998A4505D16F
:100E8000200603D444F08004761E18E0504631F06A
:100E900019FE08B30DF11301761E44F400748B455E
:100EA00008D2AAF130000BF8010B200607D5A9F1F2
:100EB000010003E0200602D409F101008146A005EB
:100EC00002D50F99681C0860B9696D1C0E98884797
:100ED0008246002ED1DC53E0002E51DDBAF1650FC1
:100EE00002D0BAF1450F4BD1A00549D5B9696D1CA7
:100EF00024F44074761E0E9888478246002E0CDD3E
:100F00002B2804D0BAF12D0F07D144F48074B969AD
:100F10006D1C0E9888478246761EE00501D52D216E
:100F200000E02B2108F8011BCDF82C8021E00DF109
:100F30002901761E44F4007488450CD2AAF13000D1
:100F400010F0FF0088F8000002D10B99884509D9FC
:100F500008F1010806E0E00501D5244801E042F26D
:100F60000F708146B9696D1C0E98884782460F98AC
:100F70000560002E04DD504631F0A4FD0028D6D1D6
:100F8000F9690E988847FF208BF8000088F8000068
:100F90000020069007904B466A4608A906A8FFF76E
:100FA00077FEA00502D46FF001002AE714F0240FA9
:100FB0000AD0E00714D1DDE906123868031D3B6052
:100FC0000068C0E900120BE0DDE90601FFF756FCFE
:100FD0000146E00704D13868021D3A6000680160EC
:100FE00028460EE7000014400000F03FF1D8FFFF54
:100FF000426842B1016811F8013B23B1521EC0E9B9
:101000000012184670470121C160881E704742686F
:101010005AB1C368016843B983688B4205D0491E41
:10102000521CC0E90012002070474FF0FF3070479B
:1010300070B58C1810F8015B15F0070301D110F89A
:10104000013B2A1106D110F8012B03E010F8016BC7
:1010500001F8016B5B1EF9D12B0705D40023521E4A
:101060000DD401F8013BFAE710F8013BCB1A921CB2
:1010700003E013F8015B01F8015B521EF9D5A142B0
:10108000D8D3002070BD0029816802D041F0010151
:1010900001E021F00101816070470000084B10B5AC
:1010A000D3F8042307490A40D0E900142143D0E9CA
:1010B0000240044321431143C3F8041310BD000050
:1010C00000200140E030FCFF10B501210C02204659
:1010D00019F080F92046BDE81040002119F07AB9D6
:1010E000C06C80B270470246002012680A4200D0ED
:1010F0000120704730B542680F4B0C791A400B68DD
:1011000042EA04221343436082680C4B4D791A4033
:10111000D1E9034323438C6844EA45042343134342
:101120008360C26A097D22F47002491EC9B242EA94
:101130000151C16230BD0000FFFEFFFCFDF7FFC0A2
:1011400070B5072409290AD9C568A1F10A0606EB7A
:101150004606B440A543B3401D43C56007E005699A
:1011600001EB4106B440A543B3401D4305611F2375
:10117000072A09D2446B521E02EB820293409C4321
:1011800091400C43446370BD0D2A09D2046BD21FF9
:1011900002EB820293409C4391400C43046370BD78
:1011A000C46A0D3A02EB820293409C4391400C4387
:1011B000C46270BD816841F0804181607047000069
:1011C0002DE9F0410025884607462E464FEA0504E2
:1011D0001AF050FD0544012004F084F91AF064FD72
:1011E0000644012004F07EF9641C102CF0DB281169
:1011F00031113960C8F80000BDE8F0812DE9F043F5
:101200008DB0FFF761FF0121042019F09BF8012147
:10121000080219F0D3F803258DF82C5000240D2076
:101220008DF82F400A908DF82E4002268DF82D6003
:101230000AA92A4809F05AFBF703CDE906470894A2
:1012400006A80994FFF72AFFDFF8949000948DF820
:1012500004404FF001088DF8054002940394049473
:101260008DF8148069464846FFF744FF012148463F
:10127000FFF709FF0121202019F064F801218802FD
:1012800019F09CF88DF82C508DF82F404FF47070A9
:101290008DF82E400A908DF82D600AA9114809F0AA
:1012A00025FBCDE90647089406A80994FFF7F6FE4A
:1012B0008DF8044000948DF8054002940394049442
:1012C000094C8DF8148069462046FFF713FF012171
:1012D0002046FFF7D8FE0DB0BDE8F08300080240BD
:1012E00000200140001402400022014038B545684A
:1012F00004460146284626F0BFF900282AD0206877
:10130000304A0F2819D006DC0B2824D00C2810D026
:101310000E2851D12FE0112802D028284CD145E0C9
:101320009268002A16D02146284601B0BDE8304018
:101330001047214628465268F7E728460AF0D6F8B3
:101340000090406E046868460AF01AF9002C01D03B
:101350002846A04738BD28460AF0C8F800906830F3
:101360000AF02CF8009803216C300AF02FF8684638
:101370000AF006F920E0E168486809680D2902D002
:10138000202913D105E0002810DD28462CF05EFA54
:1013900006E0002804DD2846BDE838402CF056BAA7
:1013A0002846BDE8384002212CF066BAE06818B93A
:1013B0000021284600F081F82046BDE8384026F09C
:1013C00003BD000014080020F0B5044685B0806914
:1013D000B4F90850668A0027CDE90265CDE9001707
:1013E0000490B4F90C00B4F91060C118B4F90A0003
:1013F000B4F90E50104433462A4600F007F805466B
:10140000616800F063F805B02846F0BDF0B585B01E
:101410000C46DDE90D514C31DFF850C0DDE90A67BB
:10142000CDE902C12146CDE9006726F01DFC04008C
:1014300018D00AF05BF810222946049026F00CFB25
:10144000049830220A493430FEF7DEFE084D049934
:101450000C3D2868486604A80AF092F8286841689C
:101460002046884705B02046F0BD0000ED12020876
:1014700020080020F8B515460C4606000DD00AF0ED
:1014800035F80090032C02D200EB840045636846D7
:101490000AF076F8304627F072F9F8BD38B50D46F7
:1014A000040009D00AF022F80090456568460AF069
:1014B00067F8204627F063F938BD4FF480720029A1
:1014C000114601D026F062B926F0B4B82DE9FF41EB
:1014D0000E4605004FF001041CD00AF007F80190F9
:1014E000876E01A800970AF04BF8314668460CF069
:1014F000FFFD78B100980024B84208D0284609F0D2
:10150000F5FF01900099816601A80AF039F8284694
:1015100027F035F904B02046BDE8F08138B50C4617
:1015200005000AD009F0E2FF0090A0F85C40684690
:101530000AF026F8284627F022F938BDF8B51546F6
:101540000C4606000DD009F0D1FF0090032C02D20A
:1015500000EB8400056468460AF012F8304627F074
:101560000EF9F8BD2DE9F041804601250024122036
:101570000DF02EFDB8F1000F03D0B8F1010F03D02C
:1015800004E020F0400601E040F0400600F0F000EA
:1015900006F0F006B04218D03709314614200DF09D
:1015A00067FD12200DF014FDB7EB101F01D10125CE
:1015B0000BE02146641C0025E4B20329EDD90309A0
:1015C0003A46414602A033F01DFD2846BDE8F081B1
:1015D00042454550202020203D2025303264284EB1
:1015E000472920253032582F253032580A00000074
:1015F00010B504004FF001000CD0FFF7B3FF2046F8
:1016000039F010FE0020FFF7ADFF2046BDE8104086
:1016100039F008BEBDE81040FFF7A4BF3EB50F4942
:1016200000206C46421892F8102A2254401C0C28C4
:10163000F8DB4FF0FF303AF059FD094A002102F182
:1016400030035060655C491C85EA10650C2953F82D
:10165000255085EA0020F5DB50603EBD0070FF1F7D
:101660002800002001A033F0CDFCFEE70A4275738C
:101670004661756C745F48616E646C657200000051
:10168000F8B5446805460146204625F0F5FF0028D8
:1016900035D028680B2838D00C2831D00E2802D03D
:1016A0000F283CD11DE0204609F020FF009010F8E3
:1016B000746F4778684609F063FF204627F072FE92
:1016C00010B3E8684168002929DD0068202826D188
:1016D0007F1CB7FBF6F006FB1071204600F0B3F854
:1016E0001DE02546204609F001FF0090006F0468C8
:1016F000684609F045FF002C01D02846A047F8BDF8
:10170000294620462CF015FC09E0204609F0EEFEA3
:101710000090783009F052FE684609F031FF284603
:10172000BDE8F84026F050BBF0B585B0B0F90850E0
:10173000468A84690296CDE903540027CDE9001753
:10174000B0F90C10B0F91050B0F90E40B0F90A0021
:10175000194410442B46224600F002F805B0F0BDB3
:101760002DE9F04F85B0284CDDE90E97DDF8488073
:101770001D4616008A46834601D035B10AE020682E
:101780008068006880470646F7E720688068006840
:10179000804705461C486FF07041001DC0688842B4
:1017A00001D147F0010708F15400184ACDE90220A1
:1017B000CDE900972B4632465146584626F054FA5A
:1017C00005001CD009F092FE10220490119926F019
:1017D00043F90D4904983C22091D3430FEF714FDED
:1017E000049821680167022180F874100F21C167F5
:1017F00004A809F0C5FE206841682846884705B05E
:101800002846BDE8F08F00008409002081160208F8
:1018100038B50C46050015D009F068FE0090016C43
:10182000A1420CD00464B4F1807F01D2002100E019
:101830000121284627F087FA284626F0A0FF6846AF
:1018400009F09EFE38BD38B50C46050012D009F0EF
:101850004DFE009090F87410A1420CD980F87540AC
:10186000684609F08DFE284626F089FF05212846A6
:1018700027F007F838BD684609F082FE38BDFEB58E
:101880000D4604001ED0002D1CD009F02FFE019043
:10189000866F01A8009609F073FE294668460CF091
:1018A00027FC00280ED00098B04208D0204609F04E
:1018B0001DFE01900099816701A809F061FE204694
:1018C00026F05DFFFEBD38B50C4605000CD009F0D2
:1018D0000DFE0090416CA14203D04464284626F0DE
:1018E0004EFF684609F04CFE38BD000000B589B0D7
:1018F00024216846FEF7AFFC1920019003480068D8
:10190000806841686846884709B000BD84090020A6
:1019100000B59DB05222032119A811F0CFFA08B3E7
:101920009DF866309DF865209DF8641010A033F096
:1019300069FB9DF866309DF8652011A168462EF080
:10194000DFFE684612F0ECF910489DF86510427809
:10195000914204D19DF866108078814206D0002023
:101960001DB000BD0A4812F0DBF9F8E70120F7E7E7
:101970002530325825303258253032580A000000C0
:101980002530325825303258000000006004002015
:1019900068E003082DE9F04F2DED048B9BB07349EF
:1019A00031F810004FF4C861401E1FFA80FA7048E9
:1019B000FEF751FC4FF43E716E48FEF74CFC6E484A
:1019C0006E4F6F4903686FA03A6833F01BFB5146B6
:1019D0006FA033F017FB664817F0C8F900287DD0D8
:1019E000002426462546A1469FED6D8B9EE00027EC
:1019F00092E05F48CAEB4A12815D304409024078A8
:101A000009B201435B4820F81410C2EB0A20664A71
:101A1000139002EB0018654A28F8141002EB001B23
:101A200012913BF9140081422ADAFEF781FE1191EE
:101A300053EC182B0290FEF79AFD41EC100B119914
:101A400053EC102B0298FEF78CFD41EC190B129809
:101A5000FEF76EFE53EC192BFEF7F8FE10D8544932
:101A600008684968FEF7C8FBFEF7BCFB0A2190FB3B
:101A7000F1F201FB12003BF81410084428F814009E
:101A80004C48139A38F9141000EB02101991029087
:101A900030F9140081422DDDFEF74AFECDE9110137
:101AA00053EC182BFEF763FD41EC100BDDE911013F
:101AB00053EC102BFEF7B4FC41EC190B1998FEF710
:101AC00037FE53EC192BFEF7A9FE13D838490868E6
:101AD0004968FEF791FBFEF785FB00E03FE00A2135
:101AE00090FBF1F201FB1200029931F81410081A70
:101AF00028F8140038F914103BF91400814204DB73
:101B0000029830F91400814200DD6D1C2AA033F0E8
:101B100079FA641CB61C7F1C174800688742FFF4E2
:101B200068AF27A033F06EFA09F10109134909687B
:101B30008945FFF45CAF22A033F064FA294621A066
:101B400033F060FA2A4623A104A82EF0D9FD04A898
:101B500012F0E6F8234921F81A502DB100201BB0ED
:101B6000BDEC048BBDE8F08F0120F8E7687351D01D
:101B700030A4002070AA00206C040020680400201B
:101B80008EC6050825732825642C202564290A00A3
:101B900070616E656C5F636E74203A2025640A0084
:101BA000666666666666D63FA8055FD09C8659D095
:101BB00048000020BC455CD02534642000000000B3
:101BC0000A0000006572725F636E74203A2025641B
:101BD0000A0000006572726F72206E6F6465203AB1
:101BE00020256400084367D02DE9F05FBC49BE4E54
:101BF0002DED028BADF5CA5D31F81000BB49401EDA
:101C00001FFA80F8B74832680368B9A033F0FAF9D0
:101C10004146BAA033F0F6F9BCA033F0F3F9002541
:101C2000AA46DFF8F092DFEDBC8AB6EE008A4FE0FC
:101C30000024AC4F45E0501E05FB0243844203D113
:101C400001A921F813A033E009EB430039F913107F
:101C5000B0F9020081420DDB002901DB8C4601E076
:101C6000C1F1000C00EE10CA081AF8EEC00A0CE030
:101C700040420CE0002801DB844601E0C0F1000C8A
:101C800000EE10CA401AF8EEC00A0028F0DB00EEA1
:101C9000100A01A9B8EEC00A80EE201AB0EE480A78
:101CA00001EE280ABDEEC00A10EE100A21F813005A
:101CB00005FB024101A830F9111098A033F0A2F9F8
:101CC000641C3A689442B6D396A033F09BF96D1C1D
:101CD00030688542ACD393A033F094F992A033F0EE
:101CE00091F900240DF6844B50E000257D4F46E02D
:101CF0003068401E844204D104FB01532BF813A02A
:101D000035E0631C04FB015203FB015339F9120057
:101D100039F9133098420DDB002801DB844601E0DD
:101D2000C0F1000C00EE10CAC01AB8EEC00A0CE0F8
:101D300040420CE0002B01DB9C4601E0C3F1000CAB
:101D400000EE10CA181AB8EEC00A0028F0DB00EE48
:101D5000900AF8EEE00A80EE801AB0EE480A01EE32
:101D6000280ABDEEC00A10EE100A2BF8120004FB80
:101D700001516AA03BF9111033F044F96D1C396828
:101D80008D42B5D367A033F03DF9641C30688442BE
:101D9000ABD364A033F036F9002465A033F032F9F8
:101DA000002577E000266DE005FB006001A93BF906
:101DB000103031F910108B4209DDC8EB48175F492C
:101DC000C7EB082701EB071121F8103008E0C8EB3A
:101DD00048175A4BC7EB082703EB071323F81010DB
:101DE000C8EB4813C3EB0821544BDFF854C103EB95
:101DF00001170CEB011A37F910303AF910C063459E
:101E000001DA27F810C04F4A37F9103002EB0119F8
:101E100039F91000834221DD143083421EDC4A4927
:101E200008684968FEF7E8F92E49096805FB016171
:101E300039F911100091FEF7D5F9009901EBD17134
:101E4000491090FBF1F201FB12002649096805FBDD
:101E5000016139F81120101A27F811002148006893
:101E600005FB006037F910103AF91020914203DBAE
:101E700039F91000814201DD641CA4B227A033F0BF
:101E8000C1F8761C174A106886428DD325A033F01E
:101E9000B9F86D1C14480068854283D321A033F043
:101EA000B1F8214629A033F0ADF841F604156D4490
:101EB00022462AA128462EF023FC284611F030FFA6
:101EC0002A4921F8184034B100200DF5CA5DBDEC57
:101ED000028BBDE8F09F01200DF5CA5DF7E7000019
:101EE000687351D06C0400206804002099C605086E
:101EF00025732825642C202564290A0070616E65ED
:101F00006C5F636E74203A2025640A00476170207C
:101F1000580A000070AA00200000C842253464203E
:101F2000000000000A00000047617020590A00000C
:101F300047617020582F590A00000000A8055FD0A3
:101F40009C8659D0BC455CD0480000206572725F09
:101F5000636E74203A2025640A0000006572726F77
:101F600072206E6F6465203A20256400084367D0B4
:101F70002DE9F04F7749784F4FF4C8662DED048B6B
:101F80009BB04FF43E7831F81000401E1FFA80FAE3
:101F9000002431467148FEF75EF941467048FEF76D
:101FA0005AF9704870493A68036870A033F02AF80B
:101FB000514671A033F026F8684816F0DBFF30B1C7
:101FC000002426462546A1469FED6F9BA1E02046B2
:101FD000641C0328DDDBB4E0002790E05F48CAEB17
:101FE0004A12815D30440902407809B201435C48DD
:101FF00020F81410C2EB0A20654A139002EB001877
:10200000644A28F8141002EB001B10913BF91400ED
:1020100081422ADAFEF78CFBCDE90E0153EC192B35
:10202000FEF7A5FA41EC100BDDE90E0153EC102B85
:10203000FEF797FA41EC180B1098FEF779FB53EC7A
:10204000182BFEF703FC10D8534908684968FEF7BF
:10205000D3F8FEF7C7F80A2190FBF1F201FB12005A
:102060003BF81410084428F814004C48139A38F927
:10207000141000EB021019910E9030F914008142F7
:102080002BDDFEF755FBCDE90F0153EC192BFEF7C5
:102090006EFA41EC100BDDE90F0153EC102BFEF74B
:1020A000BFF941EC180B1998FEF742FB53EC182BC3
:1020B000FEF7B4FB11D8384908684968FEF79CF868
:1020C000FEF790F80A2190FBF1F201FB12000E9945
:1020D00031F81410081A28F8140038F914103BF9D4
:1020E0001400814204DB0E9830F91400814200DDB7
:1020F0006D1C2BA032F086FF641CB61C7F1C194897
:1021000000688742FFF46AAF27A032F07BFF09F135
:102110000109114800688145FFF45EAF22A032F04A
:1021200071FF294621A032F06DFF2A4623A101A8A4
:102130002EF0E6FA01A811F0F3FD244921F81A5017
:102140002DB100201BB0BDEC048BBDE8F08F012049
:10215000F8E70000687351D06804002060B00020E8
:10216000A0B600206C040020A8C605082573282509
:10217000642C202564290A0070616E656C5F636EB3
:1021800074203A2025640A00666666666666D63F55
:10219000A8055FD09C8659D048000020BC455CD083
:1021A00025346420000000000A0000006572725FA0
:1021B000636E74203A2025640A0000006572726F15
:1021C00072206E6F6465203A20256400084367D052
:1021D0002DE9F05FBC49BE4E2DED028BADF5CA5D19
:1021E00031F81000BB49401E1FFA80F8B74832682A
:1021F0000368B9A032F006FF4146BAA032F002FFF0
:10220000BCA032F0FFFE0025AA46DFF8F092DFED19
:10221000BC8AB6EE008A4FE00024AC4F45E0501E69
:1022200005FB0243844203D101A921F813A033E046
:1022300009EB430039F91310B0F9020081420DDBBC
:10224000002901DB8C4601E0C1F1000C00EE10CA50
:10225000081AF8EEC00A0CE040420CE0002801DB4E
:10226000844601E0C0F1000C00EE10CA401AF8EEFE
:10227000C00A0028F0DB00EE100A01A9B8EEC00A7F
:1022800080EE201AB0EE480A01EE280ABDEEC00A20
:1022900010EE100A21F8130005FB024101A830F9E5
:1022A000111098A032F0AEFE641C3A689442B6D386
:1022B00096A032F0A7FE6D1C30688542ACD393A087
:1022C00032F0A0FE92A032F09DFE00240DF6844B69
:1022D00050E000257D4F46E03068401E844204D126
:1022E00004FB01532BF813A035E0631C04FB0152DF
:1022F00003FB015339F9120039F9133098420DDB11
:10230000002801DB844601E0C0F1000C00EE10CA99
:10231000C01AB8EEC00A0CE040420CE0002B01DB12
:102320009C4601E0C3F1000C00EE10CA181AB8EE8A
:10233000C00A0028F0DB00EE900AF8EEE00A80EE1A
:10234000801AB0EE480A01EE280ABDEEC00A10EE6F
:10235000100A2BF8120004FB01516AA03BF911107E
:1023600032F050FE6D1C39688D42B5D367A032F053
:1023700049FE641C30688442ABD364A032F042FE54
:10238000002465A032F03EFE002577E000266DE0D7
:1023900005FB006001A93BF9103031F910108B42A8
:1023A00009DDC8EB48175F49C7EB082701EB0711A8
:1023B00021F8103008E0C8EB48175A4BC7EB082744
:1023C00003EB071323F81010C8EB4813C3EB0821E5
:1023D000544BDFF854C103EB01170CEB011A37F92A
:1023E00010303AF910C0634501DA27F810C04F4A9F
:1023F00037F9103002EB011939F91000834221DD61
:10240000143083421EDC4A4908684968FDF7F4FE2F
:102410002E49096805FB016139F911100091FDF79A
:10242000E1FE009901EBD171491090FBF1F201FB43
:1024300012002649096805FB016139F81120101ABC
:1024400027F811002148006805FB006037F91010DB
:102450003AF91020914203DB39F91000814201DD85
:10246000641CA4B227A032F0CDFD761C174A106878
:1024700086428DD325A032F0C5FD6D1C144800683E
:10248000854283D321A032F0BDFD214629A032F040
:10249000B9FD41F604156D4422462AA128462EF0C6
:1024A0002FF9284611F03CFC2A4921F8184034B194
:1024B00000200DF5CA5DBDEC028BBDE8F09F012048
:1024C0000DF5CA5DF7E70000687351D06C04002079
:1024D00068040020B3C6050825732825642C202530
:1024E00064290A0070616E656C5F636E74203A2027
:1024F00025640A0047617020580A0000A0B6002039
:102500000000C84225346420000000000A000000DA
:1025100047617020590A000047617020582F590AFE
:1025200000000000A8055FD09C8659D0BC455CD057
:10253000480000206572725F636E74203A20256443
:102540000A0000006572726F72206E6F6465203A37
:1025500020256400084367D02DE9F04F2DED048B52
:102560009BB09049904C914F31F810002368401E69
:102570001FFA80FA8E498FA03A6832F043FD514627
:102580008FA032F03FFD1F208DF80400904D702287
:10259000012101A811F09AF880B3322002F0AAFFBD
:1025A00038682168722248434100284610F086FCB2
:1025B00020B3322002F09EFF1E208DF8040005F5A6
:1025C000BE657022012101A811F080F8C8B1322047
:1025D00002F090FF204639680068722241434900AA
:1025E000284610F06BFC60B1322002F083FF00241B
:1025F00026462546A1469FED779BB2E0FFE777A0F0
:1026000000E079A011F08CFBC3E000279FE0704947
:10261000885D3144497841EA00207649A1F5BE62DF
:1026200021F81400915D3244527842EA0121724A45
:10263000401A22F8141001B2CAEB4A12C2EB0A2067
:102640006E4A069002EB00186D4A28F8141002EB4F
:10265000001B04913BF9140081422EDAFEF768F862
:10266000CDE9021053EC192BFDF781FF41EC100B63
:10267000DDE9020140EC111B53EC102B51EC110B66
:10268000FDF76FFF41EC180B0498FEF751F853EC7F
:10269000182BFEF7DBF810D85A4908684968FDF78F
:1026A000ABFDFDF79FFD0A2190FBF1F201FB12004B
:1026B0003BF81410084428F814005348069A38F9D7
:1026C000141000EB02101991029030F914008142AD
:1026D0002BDDFEF72DF8CDE9030153EC192BFDF7A7
:1026E00046FF41EC100BDDE9030153EC102BFDF725
:1026F00097FE41EC180B1998FEF71AF853EC182BBB
:10270000FEF78CF811D83F4908684968FDF774FD59
:10271000FDF768FD0A2190FBF1F201FB120002991E
:1027200031F81410081A28F8140038F914103BF97D
:102730001400814204DB029830F91400814200DD6C
:102740006D1C32A032F05EFC641CB61C7F1C164867
:1027500000688742FFF45BAF2EA032F053FC09F112
:102760000109124909688945FFF44FAF29A032F0E9
:1027700049FC294628A032F045FC2A462AA107A890
:102780002DF0BEFF07A811F0CBFA2B4921F81A5003
:102790002DB100201BB0BDEC048BBDE8F08F0120F3
:1027A000F8E70000687351D06C0400206804002032
:1027B0003DC5050825732825642C202564290A00B9
:1027C00070616E656C5F636E74203A2025640A0048
:1027D00050890020666666666666D63F436F6D6DFB
:1027E0002E204661696C3100436F6D6D2E2046616D
:1027F000696C320030950020209B0020A8055FD036
:102800009C8659D048000020BC455CD0253464200B
:10281000000000000A0000006572725F636E7420A1
:102820003A2025640A0000006572726F72206E6F94
:102830006465203A20256400084367D02DE9F047FD
:1028400082461E480022DFF870C006681C488EB021
:10285000511E134615460CF5BE69076814E00024A6
:102860000FE000BF3CF8128039F81200A8EB00001E
:1028700080B2884200D20146984200D90346521CD9
:10288000641CB442EED36D1CBD42E8D3581A84B226
:10289000009122460BA101A82DF032FF01A811F0F2
:1028A0003FFA0D4931F81A00A04203D200200EB0C1
:1028B000BDE8F0870120FAE7309500206C04002085
:1028C00068040020646966663A2025642828256427
:1028D000292D282564292900B85F51D02DE9F04F12
:1028E0007249DFF8D0812DED048B99B031F81000DA
:1028F0007149401E1FFA80F96D48D8F8002003681E
:102900006EA032F07FFB49466FA032F07BFB72482D
:1029100016F086FC58B17048643016F0A5FC40B142
:1029200000242646254627469FED6C9B9EE06DA021
:1029300000E06FA011F0F4F9B0E06749885D314420
:10294000497841EA00206449C831A1F1640221F8C4
:102950001400915D3244527842EA0121674A401ADC
:1029600022F8141001B2C9EB4912C2EB0920644AE3
:10297000834602EB0018634A28F8141002EB0B1A86
:1029800005913AF9140081422ADAFDF7D1FE53ECA1
:10299000192B01910390FDF7EAFD41EC100B019911
:1029A00053EC102B0398FDF7DCFD41EC180B059858
:1029B000FDF7BEFE53EC182BFDF748FF10D8524927
:1029C00008684968FDF718FCFDF70CFC0A2190FB2C
:1029D000F1F201FB12003AF81410084428F8140030
:1029E0004A4838F9141000EB0B1B03913BF9140013
:1029F00081422ADDFDF79CFECDE9050153EC192B40
:102A0000FDF7B5FD41EC100BDDE9050153EC102B92
:102A1000FDF706FD41EC180B0398FDF789FE53EC1A
:102A2000182BFDF7FBFE10D8374908684968FDF7F9
:102A3000E3FBFDF7D7FB0A2190FBF1F201FB12004B
:102A40003BF81410081A28F8140038F914103AF951
:102A50001400814203DB3BF91400814200DD6D1C50
:102A60002BA032F0CFFA641CB61C7F1C1148006802
:102A70008742FFF462AF28A032F0C4FA294627A0AB
:102A800032F0C0FA2A4629A107A82DF039FE07A87E
:102A900011F046F9294921F819502DB1002019B03B
:102AA000BDEC048BBDE8F08F0120F8E7687351D0CE
:102AB0006C0400206804002087C5050825732825BC
:102AC000642C202564290A0070616E656C5F636E5A
:102AD00074203A2025640A0010A10020666666660C
:102AE0006666D63F436F6D6D2E204661696C31007E
:102AF000436F6D6D2E204661696C32003CA2002050
:102B0000A8055FD09C8659D048000020BC455CD009
:102B100025346420000000000A0000006572725F26
:102B2000636E74203A2025640A0000006572726F9B
:102B300072206E6F6465203A20256400084367D0D8
:102B4000F0B5054600201949174F8FB0441E0346C3
:102B5000024607F1640C0E680FE000BF37F8101052
:102B60003CF810E0A1EB0E0189B2A14200D20C4664
:102B7000994200D90B46401C521CB242EED3181B9E
:102B800086B232460AA101A800942DF0B9FD01A831
:102B900011F0C6F80B4830F81500B04202D2002000
:102BA0000FB0F0BD0120FBE7D8A100206804002091
:102BB000646966663A20256428282564292D28251D
:102BC00064292900B85F51D02DE9F04F7249DFF830
:102BD000CC812DED048B99B031F81000D8F800307D
:102BE000401E1FFA80F96E486E4902686EA032F0EE
:102BF00009FA49466FA032F005FA724816F010FB48
:102C000058B17048643016F02FFB40B100242646BE
:102C1000254627469FED6C8B9EE06DA000E06FA0DF
:102C200011F07EF8B0E06749664A6431885D31444E
:102C3000497841EA00206C4921F81400915D324442
:102C4000527842EA0121684A081A643A22F81410BC
:102C500001B2C9EB4912C2EB0920644A834602EB78
:102C60000018634A28F8141002EB0B1A05913AF980
:102C7000140081422ADAFDF75BFD53EC182B019119
:102C80000390FDF774FC41EC110B019953EC112BEF
:102C90000398FDF766FC41EC190B0598FDF748FD1C
:102CA00053EC192BFDF7D2FD10D85249086849683A
:102CB000FDF7A2FAFDF796FA0A2190FBF1F201FB6B
:102CC00012003AF81410084428F814004A4838F959
:102CD000141000EB0B1B03913BF9140081422ADD19
:102CE000FDF726FDCDE9050153EC182BFDF73FFC60
:102CF00041EC110BDDE9050153EC112BFDF790FBC5
:102D000041EC190B0398FDF713FD53EC192BFDF75C
:102D100085FD10D8374908684968FDF76DFAFDF759
:102D200061FA0A2190FBF1F201FB12003BF814104A
:102D3000081A28F8140038F914103AF914008142DE
:102D400003DB3BF91400814200DD6D1C2BA032F047
:102D500059F9641CB61C7F1C104800688742FFF4B8
:102D600062AF28A032F04EF9294627A032F04AF986
:102D70002A4629A107A82DF0C3FC07A810F0D0FF10
:102D8000294921F819502DB1002019B0BDEC048B50
:102D9000BDE8F08F0120F8E7687351D06C04002083
:102DA0006804002091C5050825732825642C20257A
:102DB00064290A0070616E656C5F636E74203A204E
:102DC00025640A00A0A20020666666666666D63F95
:102DD000436F6D6D2E204661696C3100436F6D6DE0
:102DE0002E204661696C3200CCA30020A8055FD07C
:102DF0009C8659D048000020BC455CD02534642016
:102E0000000000000A0000006572725F636E7420AB
:102E10003A2025640A0000006572726F72206E6F9E
:102E20006465203A20256400084367D0F0B5054664
:102E300000201949174F8FB0441E0346024607F180
:102E4000640C0E680FE000BF37F810103CF810E07B
:102E5000A1EB0E0189B2A14200D20C46994200D9E1
:102E60000B46401C521CB242EED3181B86B23246AF
:102E70000AA101A800942DF043FC01A810F050FF16
:102E80000B4830F81500B04202D200200FB0F0BD60
:102E90000120FBE768A300206C04002064696666DB
:102EA0003A20256428282564292D2825642929000D
:102EB000B85F51D0FEB515460E4604460BF0DCF95E
:102EC0000A490B4B51F8242053F8243000FB06210B
:102ED00000FB05220020CDE9003002900448001FCD
:102EE00050F82430204601F0EDFEFEBD44D905081F
:102EF000E80600202DE9FE4F1E46DDE90C959046C0
:102F00000F460446DDF838A00BF0B6F9114951F828
:102F10002420114951F8241000FB01220E480E49CB
:102F2000001D0C3150F8240051F8243008FB0077C4
:102F300009FB006607FB032106FB03220023401B5D
:102F4000CDF800A0CDE901032B46204601F0BAFEE2
:102F5000BDE8FE8F44D90508E00600202DE9F047C2
:102F60001C46DDE9085917468846064609F0CAF9A5
:102F7000012831D0A4EB0804ED1B3046641C6D1C05
:102F80000BF07AF91D491E4A1D4B51F8261052F8D4
:102F900026200C3300FB0212194853F82630001D7E
:102FA00050F8260007FB008101FB0321031B164894
:102FB000144F00260760C0F83890C163036446636D
:102FC00064F31F454564016841F001010160016837
:102FD000C907FCD1BDE8F0870022192130460EF068
:102FE0008FFA2B462246394640460DF05FFE3046AA
:102FF000BDE8F047054A19210EF082BA44D9050808
:10300000E00600200002030000B002405D2F02082D
:103010000B480068018990F8702011FB02F3094900
:103020000B80438913FB02F34B8083895B1C534362
:103030005B1E8B80C089401C5043401EC880704777
:10304000900700202407002010B586B010200490BF
:1030500003208DF8140000248DF8174004A90C48B3
:1030600007F044FC3C20CDE90004694600200394AD
:1030700001F02EFC0121480717F088F901210020FA
:1030800001F01AFC9FED030A01F0F4FE06B010BD3A
:10309000000002400000000030B50446002318463E
:1030A00004E05D185B1C655D2844C0B29342F8DB08
:1030B00030BD00002DE9FF4F4FEA502A481E012283
:1030C00002EB5029CD05ADF2844DED0D4FF40070AB
:1030D00000D105460026B9F1010453D44FF4017B19
:1030E00080461420761CB6FBF0F100FB116068B935
:1030F0003346CDF8009026A10DF58160DDF89024CF
:103100002DF0FEFA0DF5816010F00AFE0020034656
:1031100081A94246A84207D2DDF88C7400EB442C0A
:1031200017F80C700F5400E00B54401C80B240455F
:10313000F0D30F4604EB0A0559466846FDF78BF8B5
:10314000D9208DF80000280A8DF801008DF8025072
:103150000020694645463A5C0B18401C80B2DA7084
:10316000A842F8D340F2022201216846FFF794FFFB
:103170008DF803025946684610F03CF9002802D049
:10318000641EAED501200DF2944DBDE8F08F000015
:10319000466C617368205772697465205B25303214
:1031A000645D28253032642F253032642900000008
:1031B0002DE9F04F68496A4E2DED048B91B031F83E
:1031C00010006849401E1FFA80F96448326803689D
:1031D00065A031F017FF494666A031F013FF0024C7
:1031E0002546A0469FED679B95E0002789E067484C
:1031F000C9EB491230F91410C2EB0920644A834626
:1032000002EB0016634A26F8141002EB0B1A0F911A
:103210003AF9140081422ADAFDF78AFACDE90D0164
:1032200053EC192BFDF7A3F941EC100BDDE90D016F
:1032300053EC102BFDF795F941EC180B0F98FDF7A7
:1032400077FA53EC182BFDF701FB10D852490868A8
:103250004968FCF7D1FFFCF7C5FF0A2190FBF1F2AA
:1032600001FB12003AF81410084426F814004B48E9
:1032700036F9141000EB0B1B0F913BF9140081423F
:103280002ADDFDF755FACDE90D0153EC192BFDF7B9
:103290006EF941EC100BDDE90D0153EC102BFDF73D
:1032A000BFF841EC180B0F98FDF742FA53EC182BBE
:1032B000FDF7B4FA10D8384908684968FCF79CFF54
:1032C000FCF790FF0A2190FBF1F201FB12003BF8A2
:1032D0001410081A26F8140036F914103AF91400DC
:1032E000814203DB3BF91400814200DD6D1C2CA000
:1032F00031F088FE254836F8141020F81410641CAC
:103300007F1C164800688742FFF471AF26A031F099
:1033100079FE08F10108124800688045FFF465AFA6
:1033200021A031F06FFE294620A031F06BFE2A4625
:1033300022A168462DF0E4F9684610F0F1FC23491B
:1033400021F819502DB1002011B0BDEC048BBDE85F
:10335000F08F0120F8E70000687351D06C04002062
:103360006804002045C5050825732825642C202500
:1033700064290A0070616E656C5F636E74203A2088
:1033800025640A00666666666666D63F1C0B0020EA
:10339000A8055FD09C8659D048000020BC455CD071
:1033A00025346420000000000A0000006572725F8E
:1033B000636E74203A2025640A0000006572726F03
:1033C00072206E6F6465203A20256400084367D040
:1033D0002DE9F05FBC49BE4E2DED028BADF5CA5D07
:1033E00031F81000BB49401E1FFA80F8B748326818
:1033F0000368B9A031F006FE4146BAA031F002FEE2
:10340000BCA031F0FFFD0025AA46DFF8F092DFED09
:10341000BC8AB6EE008A4FE00024AC4F45E0501E57
:1034200005FB0243844203D101A921F813A033E034
:1034300009EB430039F91310B0F9020081420DDBAA
:10344000002901DB8C4601E0C1F1000C00EE10CA3E
:10345000081AF8EEC00A0CE040420CE0002801DB3C
:10346000844601E0C0F1000C00EE10CA401AF8EEEC
:10347000C00A0028F0DB00EE100A01A9B8EEC00A6D
:1034800080EE201AB0EE480A01EE280ABDEEC00A0E
:1034900010EE100A21F8130005FB024101A830F9D3
:1034A000111098A031F0AEFD641C3A689442B6D376
:1034B00096A031F0A7FD6D1C30688542ACD393A077
:1034C00031F0A0FD92A031F09DFD00240DF6844B5B
:1034D00050E000257D4F46E03068401E844204D114
:1034E00004FB01532BF813A035E0631C04FB0152CD
:1034F00003FB015339F9120039F9133098420DDBFF
:10350000002801DB844601E0C0F1000C00EE10CA87
:10351000C01AB8EEC00A0CE040420CE0002B01DB00
:103520009C4601E0C3F1000C00EE10CA181AB8EE78
:10353000C00A0028F0DB00EE900AF8EEE00A80EE08
:10354000801AB0EE480A01EE280ABDEEC00A10EE5D
:10355000100A2BF8120004FB01516AA03BF911106C
:1035600031F050FD6D1C39688D42B5D367A031F044
:1035700049FD641C30688442ABD364A031F042FD45
:10358000002465A031F03EFD002577E000266DE0C7
:1035900005FB006001A93BF9103031F910108B4296
:1035A00009DDC8EB48175F49C7EB082701EB071196
:1035B00021F8103008E0C8EB48175A4BC7EB082732
:1035C00003EB071323F81010C8EB4813C3EB0821D3
:1035D000544BDFF854C103EB01170CEB011A37F918
:1035E00010303AF910C0634501DA27F810C04F4A8D
:1035F00037F9103002EB011939F91000834221DD4F
:10360000143083421EDC4A4908684968FCF7F4FD1F
:103610002E49096805FB016139F911100091FCF789
:10362000E1FD009901EBD171491090FBF1F201FB32
:1036300012002649096805FB016139F81120101AAA
:1036400027F811002148006805FB006037F91010C9
:103650003AF91020914203DB39F91000814201DD73
:10366000641CA4B227A031F0CDFC761C174A106868
:1036700086428DD325A031F0C5FC6D1C144800682E
:10368000854283D321A031F0BDFC214629A031F031
:10369000B9FC41F604156D4422462AA128462DF0B6
:1036A0002FF8284610F03CFB2A4921F8184034B185
:1036B00000200DF5CA5DBDEC028BBDE8F09F012036
:1036C0000DF5CA5DF7E70000687351D06C04002067
:1036D000680400204FC5050825732825642C202583
:1036E00064290A0070616E656C5F636E74203A2015
:1036F00025640A0047617020580A00001C0B002056
:103700000000C84225346420000000000A000000C8
:1037100047617020590A000047617020582F590AEC
:1037200000000000A8055FD09C8659D0BC455CD045
:10373000480000206572725F636E74203A20256431
:103740000A0000006572726F72206E6F6465203A25
:1037500020256400084367D02DE9F04F2DED048B40
:10376000ADF25C6D844931F810004FF4BE61401E2B
:103770001FFA80FA6846FCF76EFD804C804E814946
:10378000236881A0326831F03DFC514681A031F0C0
:1037900039FC13208DF8F4056D46702201210DF2DD
:1037A000F4500FF093FF98B11E2001F0A3FE2146C4
:1037B0003068096872224843410028460FF07EFBBA
:1037C00030B1002425462746A1469FED768BADE01B
:1037D00076A010F0A5FAC3E000269DE01DF80510C4
:1037E0000DEB05000902407809B20143CAEB4A1209
:1037F000C2EB0A20704ACDF8080602EB00186F4AA7
:1038000028F8141002EB001BCDF800163BF9140049
:1038100081422EDAFCF78CFF53EC182BCDF8FC1507
:10382000CDF8F805FCF7A3FE41EC100B0DF5BF60D9
:1038300053EC102B03C8FCF794FE41EC190BDDF898
:103840000006FCF775FF53EC192BFCF7FFFF10D8AF
:103850005B4908684968FCF7CFFCFCF7C3FC0A2108
:1038600090FBF1F201FB12003BF81410014428F820
:1038700014105448DDF8082638F9141000EB021033
:10388000CDF85416CDF8F80530F91400814230DD3A
:10389000FCF74EFF53EC182BCDF80016CDF8FC05C5
:1038A000FCF765FE41EC100B0DF2FC5053EC102BB5
:1038B00003C8FCF7B5FD41EC190BDDF85406FCF725
:1038C00037FF53EC192BFCF7A9FF12D83C490868C5
:1038D0004968FCF791FCFCF785FC0A2190FBF1F2AA
:1038E00001FB1201DDF8F80530F81400411A28F840
:1038F000141038F914103BF91400814205DBDDF88F
:10390000F80530F91400814200DD7F1C2EA031F053
:1039100079FB641CAD1C761C184800688642FFF4D5
:103920005DAF2BA031F06EFB09F10109144800686E
:103930008145FFF451AF26A031F064FB394625A044
:1039400031F060FB3A4627A10DF20C602CF0D8FE56
:103950000DF20C6010F0E4F9264921F81A7037B125
:1039600000200DF25C6DBDEC048BBDE8F08F0120F2
:103970000DF25C6DF7E70000687351D06C04002015
:10398000680400202EC5050825732825642C2025F1
:1039900064290A0070616E656C5F636E74203A2062
:1039A00025640A00666666666666D63F436F6D6D7F
:1039B0002E204661696C0000A8055FD09C8659D016
:1039C00048000020BC455CD0253464200000000085
:1039D0000A0000006572725F636E74203A202564ED
:1039E0000A0000006572726F72206E6F6465203A83
:1039F00020256400084367D02DE9F04F2DED048B9E
:103A0000ADF25C6D7A4931F810004FF4BE61401E92
:103A10001FFA80FA6846FCF71EFC7648764E774916
:103A2000036877A0326831F0EDFA514677A031F0A3
:103A3000E9FA684615F0A4FB00287CD0002425464E
:103A40002746A1469FED758BADE00026A1E000BFA3
:103A50001DF805100DEB05000902407809B201437D
:103A6000CAEB4A12C2EB0A206E4ACDF83C0602EBC2
:103A700000186D4A28F8141002EB001BCDF834161C
:103A80003BF9140081422EDAFCF752FE53EC182B5E
:103A9000CDF82C16CDF82806FCF769FD41EC110B8A
:103AA0000DF5C56053EC112B03C8FCF75AFD41EC32
:103AB000190BDDF83406FCF73BFE53EC192BFCF731
:103AC000C5FE10D8594908684968FCF795FBFCF712
:103AD00089FB0A2190FBF1F201FB12003BF8141064
:103AE000084428F814005248DDF83C2638F9141030
:103AF00000EB0210CDF85416CDF8280630F914006A
:103B0000814233DDFCF714FE53EC182BCDF82C1654
:103B1000CDF83406FCF72BFD41EC110BDDF82C162B
:103B200053EC112BDDF83406FCF77AFC41EC190B51
:103B3000DDF8540600E051E0FCF7FAFD53EC192BD8
:103B4000FCF76CFE12D8394908684968FCF754FB49
:103B5000FCF748FB0A2190FBF1F201FB1200DDF8B3
:103B6000281631F81410081A28F8140038F914101F
:103B70003BF91400814205DBDDF8280630F914001A
:103B8000814200DD7F1C2BA031F03CFA641CAD1C8F
:103B9000761C184800688642FFF45AAF27A031F01F
:103BA00031FA09F10109144909688945FFF44DAF5B
:103BB00022A031F027FA394621A031F023FA3A4603
:103BC00023A10DF2F4502CF09BFD0DF2F45010F0F7
:103BD000A7F8234921F81A7037B100200DF25C6D67
:103BE000BDEC048BBDE8F08F01200DF25C6DF7E7B2
:103BF000687351D06C0400206804002035C50508A6
:103C000025732825642C202564290A0070616E65BF
:103C10006C5F636E74203A2025640A0066666666EF
:103C20006666D63FA8055FD09C8659D04800002024
:103C3000BC455CD025346420000000000A00000070
:103C40006572725F636E74203A2025640A0000007A
:103C50006572726F72206E6F6465203A2025640071
:103C6000084367D038B50324009401F091F838BDBB
:103C700038B50424009401F08BF838BD38B502241F
:103C8000009401F085F838BD38B50024009401F0A7
:103C90007FF838BD38B50024009401F079F838BDBC
:103CA0001CB524F0C7F90346002000900190034A98
:103CB0001121034807F0F6FE1CBD0000610F050846
:103CC0007CCB05081CB524F0B5F903460020009014
:103CD0000190034A0321034807F0E4FE1CBD0000E5
:103CE000E108050898C905081CB524F0A3F90346A6
:103CF000002000900190034A0A21034807F0D2FEF9
:103D00001CBD0000090A0508ECC905081CB524F013
:103D100091F90346002000900190034A04210348D2
:103D200007F0C0FE1CBD0000150E050804CB0508F9
:103D30001CB524F07FF90346002000900190034A4F
:103D40000521034807F0AEFE1CBD00008D120508DA
:103D500058CD05081CB524F06DF9034600200090ED
:103D60000190034A1321034807F09CFE1CBD00008C
:103D700021140508E4CD05081CB524F05BF90346C1
:103D8000002000900190034A0821034807F08AFEB2
:103D90001CBD0000691A0508F8CF05081CB524F001
:103DA00049F90346002000900190034A1521034879
:103DB00007F078FE1CBD0000B91E0508D8D0050824
:103DC0001CB524F037F90346002000900190034A07
:103DD0000521034807F066FE1CBD0000C927050841
:103DE00024D305082DE9F04F5749594E8FB031F8CB
:103DF00010005849401E1FFA80F854483268036882
:103E000055A031F0FFF8414656A031F0FBF80024F0
:103E100025462746B3467AE05648C8EB481130F9A4
:103E20001430C1EB0820544901EB0016534926F821
:103E3000143001EB0019524939F9142001EB001A32
:103E40003AF91400111A00D5494241F34F0100EE2E
:103E5000101AF6EE000AB8EEC00A20EE200ABDEEF7
:103E6000C00A10EE10CA02FA8CF200EE101A12B25A
:103E70000D92B8EEC00A20EE200ABDEEC00A10EE88
:103E8000101A411A09B2834212DA8B4210DB3D4903
:103E900008684968FCF7B0F9FCF7A4F90A2190FB1F
:103EA000F1F201FB12003AF81410084426F814004D
:103EB00036F9140039F91410884213DD0D9988423F
:103EC00010DC304908684968FCF796F9FCF78AF974
:103ED0000A2190FBF1F201FB120039F81410081AC4
:103EE00026F8140036F914103AF91400814203DB65
:103EF00039F91400814200DD6D1C23A031F082F8F5
:103F00001C4836F8141020F81410641C7F1CDBF8D1
:103F10000000874280D31EA031F074F829461DA00E
:103F200031F070F82A461FA168462CF0E9FB68467C
:103F30000FF0F6FE1F4921F818501DB100200FB0F8
:103F4000BDE8F08F0120FAE7687351D06C040020BF
:103F5000680400205DC5050825732825642C2025EC
:103F600064290A0070616E656C5F636E74203A208C
:103F700025640A00A41E0020A8055FD0BC455CD0C3
:103F80009C8659D0480000202534642000000000A1
:103F90000A0000006572725F636E74203A20256427
:103FA0000A0000006572726F72206E6F6465203ABD
:103FB00020256400084367D02DE9F04F5649574E3D
:103FC0008FB031F810003368401E1FFA80F8544853
:103FD0005449026854A031F015F8414655A031F01B
:103FE00011F8002425462746B34677E05548C8EB2C
:103FF0004811F6EE000A30F91420C1EB08205249AE
:1040000001EB0016514926F8142001EB0019504924
:1040100039F9143001EB001A3AF91410581A00B2A9
:1040200000EE100AB8EEC00A20EE200ABDEEC00A6B
:1040300010EE10CA03FA8CF300EE100A1BB20D93B7
:10404000B8EEC00A20EE200ABDEEC00A10EE100A3B
:10405000081A00B28A4212DA824210DB3D4908682F
:104060004968FCF7C9F8FCF7BDF80A2190FBF1F2AA
:1040700001FB12003AF81410084426F8140036F92F
:10408000140039F91410884213DD0D99884210DCB0
:10409000304908684968FCF7AFF8FCF7A3F80A2133
:1040A00090FBF1F201FB120039F81410081A26F8FF
:1040B000140036F914103AF91400814203DB39F97F
:1040C0001400814200DD6D1C23A030F09BFF1D48D1
:1040D00036F8141020F81410641C7F1CDBF8000064
:1040E000874283D31EA030F08DFF29461DA030F0FB
:1040F00089FF2A461FA168462CF002FB68460FF094
:104100000FFE204921F818501DB100200FB0BDE866
:10411000F08F0120FAE70000687351D06C04002092
:104120006804002069C5050825732825642C20250E
:1041300064290A0070616E656C5F636E74203A20BA
:1041400025640A00081F0020A8055FD0BC455CD08C
:104150009C8659D0480000202534642000000000CF
:104160000A0000006572725F636E74203A20256455
:104170000A0000006572726F72206E6F6465203AEB
:1041800020256400084367D02DE9F04F2DED048B06
:10419000ADB0694931F810007421401E1FFA80F952
:1041A0006846FCF758F86548DFF89481654903686C
:1041B00065A0D8F8002030F025FF494665A030F012
:1041C00021FF684615F074F830B1002426462546D4
:1041D00027469FED649B8EE064A00FF0A1FDA2E056
:1041E0001DF806100DEB06000902407809B20143E4
:1041F000C9EB4912C2EB09205F4A834602EB001863
:104200005E4A28F8141002EB0B1A2C913AF91400AC
:1042100081422ADAFCF78CFACDE92A0153EC192BFA
:10422000FCF7A5F941EC100BDDE92A0153EC102B4A
:10423000FCF797F941EC180B2C98FCF779FA53EC42
:10424000182BFCF703FB10D84D4908684968FBF7A9
:10425000D3FFFBF7C7FF0A2190FBF1F201FB12002D
:104260003AF81410084428F81400464838F9141095
:1042700000EB0B1B2C913BF9140081422ADDFCF76B
:1042800057FACDE92A0153EC192BFCF770F941ECF0
:10429000110BDDE92A0153EC112BFCF7C1F841ECBD
:1042A000180B2C98FCF744FA53EC182BFCF7B6FAD1
:1042B00010D8334908684968FBF79EFFFBF792FF67
:1042C0000A2190FBF1F201FB12003BF81410091ACD
:1042D00028F8141038F914103AF91400814203DB5D
:1042E0003BF91400814200DD6D1C27A030F08AFEEE
:1042F000641CB61C7F1C124800688742FFF470AF34
:1043000023A030F07FFE294622A030F07BFE2A4613
:1043100024A11DA82CF0F4F91DA80FF001FD2549DA
:1043200021F819502DB100202DB0BDEC048BBDE853
:10433000F08F0120F8E70000687351D06C04002072
:104340006804002075C5050825732825642C2025E0
:1043500064290A0070616E656C5F636E74203A2098
:1043600025640A00666666666666D63F436F6D6DB5
:104370002E204661696C0000A8055FD09C8659D04C
:1043800048000020BC455CD02534642000000000BB
:104390000A0000006572725F636E74203A20256423
:1043A0000A0000006572726F72206E6F6465203AB9
:1043B00020256400084367D02DE9F04F2DED048BD4
:1043C000ADB06A4931F810007421401E1FFA80F91F
:1043D0006846FBF740FFDFF89881664D6649D8F8DC
:1043E000003066A02A6830F00DFE494666A030F025
:1043F00009FE684614F05CFF38B1002428682546A1
:10440000460027469FED649B8FE065A00FF088FC77
:10441000A3E000BF1DF806100DEB0600090240786E
:1044200009B20143C9EB4912C2EB09205F4A834636
:1044300002EB00185E4A28F8141002EB0B1A2C91BC
:104440003AF9140081422ADAFCF772F9CDE92A011F
:1044500053EC192BFCF78BF841EC100BDDE92A012A
:1044600053EC102BFCF77DF841EC180B2C98FCF763
:104470005FF953EC182BFCF7E9F910D84D4908689F
:104480004968FBF7B9FEFBF7ADFE0A2190FBF1F29C
:1044900001FB12003AF81410084428F814004649A9
:1044A00038F9142001EB0B1B2C923BF914008242CB
:1044B0002ADDFCF73DF9CDE92A0153EC192BFCF775
:1044C00056F841EC100BDDE92A0153EC102BFBF7F9
:1044D000A7FF41EC180B2C98FCF72AF953EC182B8A
:1044E000FCF79CF910D8334908684968FBF784FE4B
:1044F000FBF778FE0A2190FBF1F201FB12003BF87A
:104500001410081A28F8140038F914103AF9140095
:10451000814203DB3BF91400814200DD6D1C27A0C2
:1045200030F070FD641CB61C7F1C11480068874287
:10453000FFF470AF23A030F065FD294622A030F0D3
:1045400061FD2A4624A11DA82CF0DAF81DA80FF061
:10455000E7FB254921F819502DB100202DB0BDEC05
:10456000048BBDE8F08F0120F8E70000687351D09C
:104570006C040020680400207EC5050825732825EA
:10458000642C202564290A0070616E656C5F636E7F
:1045900074203A2025640A00666666666666D63F21
:1045A000436F6D6D2E204661696C0000A8055FD0D9
:1045B0009C8659D048000020BC455CD0253464203E
:1045C000000000000A0000006572725F636E7420D4
:1045D0003A2025640A0000006572726F72206E6FC7
:1045E0006465203A20256400084367D00FB470B595
:1045F000054606AA0A4805992CF096F8094C05B11B
:10460000A560074A08A1A0682CF07AF80448FBF7D7
:104610002DFEA1680844A06070BC5DF814FB00008A
:1046200000002ED028000020257300002DE9F0475F
:1046300001260024174688468146FF2811D0A9F19B
:104640000100072856D813200AF0C2FC0121A9F165
:1046500001029140B8F1000F2ED0B8F1010F2ED019
:104660002FE0B8F1010F03D0B8F1000F10D041E0F6
:10467000FF2115200AF0FCFC13200AF0A9FCFF28FA
:104680002AD02046641C0026E4B20328F0D90DE0AD
:10469000002115200AF0ECFC13200AF099FCD8B197
:1046A0002046641C0026E4B20328F1D93A4641466C
:1046B00030A030F0A7FC1DE020EA010501E0CDB2FA
:1046C0000543A84216D0294615200AF0D1FC132034
:1046D0000AF07EFC854201D101260BE02046641CD5
:1046E0000026E4B20328EED93B464246494628A0BC
:1046F00030F088FC2E480168494535D1B8F1010FEA
:1047000032D1052016F0FCF8000A00072CD0294D04
:104710004FF480547F1EBFB229D32146284606F0AD
:10472000DFFA18B1012036F07DFDF3E700211520F6
:104730000AF09EFC13200AF04BFC1FA030F062FC34
:1047400021A28021012012F091FA0120FCF70AFF3A
:1047500004F008FD0020FCF705FF1BA280210020CB
:1047600012F084FA002602E0384636F05BFD30464F
:10477000BDE8F087536F6C20414C4C203D20253024
:1047800032642C20253034646D73284E47290A008A
:10479000536F6C202530326420203D202530326458
:1047A0002C20253034646D73284E47290A00000000
:1047B000F004002000080240536166652053656ED6
:1047C000736F72204F4E0A00536166652053656E09
:1047D000736F72204F4E00002DE9F04304468FB0F6
:1047E0000020154689460D9006460E9022461EA1D1
:1047F00068462BF085FF6A468021012012F036FAC8
:104800000DA9A4F101080F1915E000BF18F049F92E
:1048100020FA08F000F0010007F8010C484507D124
:10482000012618A030F0EEFB802117A2002015E031
:10483000012036F0F7FC6D1EADB2E7D213A030F0C8
:10484000E1FB00221146FF20FFF7F0FE224610A1F7
:1048500068462BF055FF6A468021012012F006FAC7
:104860000FB03046BDE8F083436865636B20437941
:104870006C696E6465722053656E736F72282530A3
:10488000325829004F4B0A00000000004E470A0032
:1048900043796C696E6465722053656E736F72281C
:1048A00025303258290A506F736974696F6E20453C
:1048B00072726F7200000000044A01238340106886
:1048C00009B1184300E0984310607047007400403D
:1048D00030B5084C236840F6FE7282409343D1E91C
:1048E00000252A43D1E902510D432A4382401A434D
:1048F000226030BD00740040034A08B510440830FF
:104900000090016008BD000000740040014800688C
:10491000704700005008002070B5064690B0052092
:1049200015F0EEFF000715D0052015F0E9FF00F0A7
:104930000F00012810D0052015F0E2FF00F00F0055
:1049400002280BD0052015F0DBFF00F00F00032834
:1049500006D00AE0754A04E0754A02E0754A00E0B4
:10496000754A76A107A82BF0CBFE754A75A1784849
:104970002BF0C6FE764831F083F807AB704A75A17C
:1049800073482BF0BDFE724831F07AF8754C07ABD6
:10499000E078627921798DE80700694A72A16C4854
:1049A0002BF0AEFE6A4831F06BF8774D21796079D3
:1049B000E2782B68CDE90321CDE90503CDE900219B
:1049C000029007AB5E4A71A180482BF099FE5C4AC9
:1049D0005CA17F482BF094FE7D4831F051F807AB85
:1049E000574A5CA17A482BF08BFE794831F048F8A1
:1049F000E078627921798DE8070007AB504A5AA127
:104A000073482BF07DFE724831F03AF8E078627915
:104A100021798DE8070007AB494A6EA16C482BF05D
:104A20006FFE6B4831F02CF821796079E2782B68C1
:104A3000CDE90321CDE90503CDE90021029007ABC3
:104A40003F4A6D496D482BF05BFE21796079E27831
:104A50002B68CDE90321CDE90503CDE900210290C2
:104A600007AB374A664967482BF04AFE2B68E07867
:104A700003AD6279217985E80F008DE8070007AB67
:104A80002F4A614961482BF03BFE2D4A2DA1604819
:104A90002BF036FE5E4830F0F3FF07AB284A2DA11D
:104AA0005B482BF02DFE5A4830F0EAFFE07862793F
:104AB00021798DE8070007AB214A2BA154482BF040
:104AC0001FFE534830F0DCFFE078627921798DE8F1
:104AD000070007AB1A4A4FA14D482BF011FE4C4876
:104AE00030F0CEFF16485549012E12D0002E0ED1BF
:104AF000096863792279CDE90301CDE90123E078E2
:104B00000F4A07AB4EA100905D482BF0F9FD10B0A5
:104B100070BD096863792279CDE90301CDE90123EC
:104B2000E07807AB064A57A10090EDE7387651D000
:104B30007C7951D0C07C51D0048051D025730000C5
:104B4000D07451D0303A2F4C4F472825732900009C
:104B500016DC0020303A2F4C4F47282573292F258B
:104B6000730000004C050020303A2F4C4F47282599
:104B700073292F25732F3230253032642D253032A2
:104B8000642D2530326400002C000020303A2F4C78
:104B90004F47282573292F25732F32302530326453
:104BA0002D253032642D253032642F73756D6D6183
:104BB00072795F25303264253032642530326428C2
:104BC0002530386C58292E637376000016DD0020DE
:104BD00016DE0020303A2F4C4F47282573292F2509
:104BE000732F3230253032642D253032642D25303C
:104BF00032642F66756E63009062060816DF00202F
:104C0000D462060816E000201C63060816E10020A6
:104C100016E20020303A2F4C4F47282573292F25C4
:104C2000732F3230253032642D253032642D2530FB
:104C300032642F5344435F4C6F67000018E8002034
:104C4000303A2F4C4F47282573292F25732F3230A8
:104C5000253032642D253032642D253032642F53B7
:104C600044435F4C6F672F25735F5453505F4C4F25
:104C7000475F53504C25645F462E637376000000F7
:104C800016E30020303A2F4C4F47282573292F2553
:104C9000732F3230253032642D253032642D25308B
:104CA00032642F5344435F4C6F672F25735F545317
:104CB000505F4C4F475F53504C25645F502E6373D9
:104CC000760000002DE9F0470E4608A91C4691E841
:104CD0008003154609F0E0FA0B494FF400720A60B0
:104CE000CE60CD63C1F81080C1F84090C8613846ED
:104CF00064F31F404864086840F0010008600868D9
:104D0000C007FCD1BDE8F08700B00240AFF30080DF
:104D1000014902208860704700B0024070B5154616
:104D20000E461C461A4615490BF074FA22461449E1
:104D300030460BF06FFA1448114A104B114EA2F591
:104D400070510660C3604261C163002101618161ED
:104D50000164C16141624163012101EB044141648D
:104D6000016841F0010101600168C907FCD12246D8
:104D70002946BDE8704005480BF04CBA08190120DF
:104D8000083701200002020000B0024008FB0020AA
:104D9000F8B50E4614460649069D0BF042FA2B461E
:104DA000002231460248009400F004F8F8BD0000EB
:104DB00008FB002070B50C4C4FF48136049D266032
:104DC000E060E163002020612064E2616363012010
:104DD00000EB05406064206840F00100206020681E
:104DE000C007FCD170BD000000B0024038B51446C9
:104DF0000D46049A002305490094FFF7DBFF224685
:104E00002946BDE8384001480BF00BBA08FB0020EA
:104E10000EB5FF23B3EB116F26D080F07F400090DA
:104E200081F07F400190124810490160C0F80CD019
:104E300001A9416102A9C1634FF4803141EA0261D5
:104E4000C161C2F1FF0109064162002141634FF0D7
:104E500001114164016841F0010101600168C90765
:104E6000FCD1029880F07F400EBD000000020200DD
:104E700000B002409FED091AF0EE040A20EE010A8C
:104E800080EE201AB7EE000A31EE400ABCEEC00AEE
:104E900010EE100A81B20020FFF72EBD0000804501
:104EA00030B51848ADF20C4D40F61501006823F0FE
:104EB000D7F8154C6FF07F41206019F0B5FC4FF426
:104EC0000001206819F04EFC104DDFED110A95ED40
:104ED000000AB8EEC00A20EE200A10EE100AFBF716
:104EE00089FCCDE900010BA102A86A682BF008FC3F
:104EF00002A9206819F063FC07F034F90DF20C4D9B
:104F000030BD0000F8050020E005002024E8002066
:104F10000000803A202D2025730A202D2073697A05
:104F200065203A20252E3266206B42003EB504F003
:104F300003FA2449002015F053FC2349002015F002
:104F400073FC22484168224804F0D8F9214D00241E
:104F500004F10160295D203004F096F9641CB42C42
:104F6000F6DB184C1A48E178143804F0C7F91848F1
:104F70006178103804F0C2F91548A1780C3804F0B3
:104F8000BDF9114C12482178083804F0B7F91048DF
:104F90006178001F04F0B2F94FF001640E49204619
:104FA00004F0ACF954F8102B74E803018DE8070005
:104FB00094E80E0009A030F025F804F05DF9012016
:104FC0003EBD00005C04002058040020C005002005
:104FD0001800100844E90020415441443230253083
:104FE00032642D253032642D253032642C2025305A
:104FF00032643A253032645B25585D20496E707505
:105000007420446174612053617665204F4B210AFE
:10501000000000002DE9FE4F044604F08DF953A175
:105020002046FBF75DF9824650A10020FBF758F9B6
:1050300081464EA10020FBF753F980464BA100208A
:10504000FBF74EF9074649A10020FBF749F9064650
:1050500046A10020FBF744F9044644A10020FBF7D9
:105060003FF9054641A10020FBF73AF98346204667
:10507000FBF7C9F901463E4804F040F9002404F169
:105080000160295D203004F0FFF8641CB42CF6DBCD
:105090005046FBF7B8F9C1B23548143804F02EF980
:1050A0004846FBF7B0F9C1B23148103804F026F990
:1050B0004046FBF7A8F9C1B22D480C3804F01EF9A0
:1050C0003846FBF7A0F9C1B22948083804F016F9B0
:1050D0003046FBF798F9C1B22548001F04F00EF9DD
:1050E0004FF001642349204604F008F91022002102
:1050F0005846FBF74FF901461D48001D04F0FEF825
:1051000054F8102B74E803018DE8070094E80E00B2
:1051100019A02FF077FF1EF03FFB00F0CDF94FF004
:10512000FF3036F0E3FF244B224A00211C68234D58
:10513000136807E0665C491C86EA106655F826602D
:1051400086EA00208B42F5DC92681D49824201D13B
:10515000012000E000200870194A0521892037F05D
:10516000D7F804F089F80120BDE8FE8F2C0000007C
:1051700018001008415441443230253032642D2546
:105180003032642D253032642C20253032643A25AB
:105190003032645B25585D20496E7075742044611F
:1051A00074612053617665204F4B215B25585D0A61
:1051B0000000000024E800205405002058000020D2
:1051C000CCEF00202F4810B5007870B14FF40004E8
:1051D0002DA22146012018F01FFEFA20FCF708FA44
:1051E0002EF01EFE012803D02FE02AA2802125E008
:1051F0002FF094FB002828D00120FCF7F9F92CA20D
:105200002146012018F008FE2FF064FEE8B10120CD
:10521000FCF7EEF92BA22146012018F0FDFD2FF03E
:10522000E7FD90B10120FCF7E3F92BA22146012014
:1052300018F0F2FDFFF77AFE2CA22146012018F0AB
:10524000EBFDFA20FCF7D4F90EE02FF067FB2DA25E
:105250008021012018F0E0FD0120FCF783F903F024
:1052600081FF0020FCF77EF91EF096FA00F024F989
:10527000642000F03FF98021BDE8104028A2002002
:1052800018F0CABD6C060020555342204D6F756E54
:105290007400000055534220556E6D6F756E740A90
:1052A00028507265737320455343204B455929009C
:1052B0004461746120417265610A457261736520C1
:1052C000204F4B00446174612046696C650A577237
:1052D00069746520204F4B00446174612046696CFD
:1052E000650A566572696679204F4B0044617461A6
:1052F0002046696C650A5570646174652066696E44
:105300007368000046696C65204572726F720A28E6
:10531000507265737320455343204B455929000053
:10532000000000002DE9F0414FF48071604D8E01C6
:10533000604C4F01092849D2DFE800F00509294DEA
:10534000657989959D00284605F0D3FC96E02846AE
:1053500005F0CFFC8021284605F0CBFC40212846F3
:1053600005F0C7FC0821284605F0C3FC314620465D
:1053700005F0BFFC3946204605F0BBFC082120465D
:1053800005F0B7FC0421204605F0B1FC1EE02846DC
:1053900005F0AFFC8021284605F0ABFC40212846F3
:1053A00005F0A7FC0821284605F0A3FC314620465D
:1053B00005F09FFC3946204605F09BFC082120465D
:1053C00005F095FC0421204605F093FCBDE8F04172
:1053D000012000F0A5B8284605F08BFC8021284666
:1053E00005F087FC4021284605F083FC082128466B
:1053F00005F07FFC3146204605F07BFC394620460F
:1054000005F075FC4EE0284605F073FC8021284627
:1054100005F06FFC4021284605F06BFC082128466A
:1054200005F067FC3146204605F061FC36E0284671
:1054300005F05FFC8021284605F05BFC40212846F2
:1054400005F057FC0821284605F051FC22E02846CB
:1054500005F04FFC8021284605F04BFC40212846F2
:1054600005F045FC12E0284605F043FC8021284663
:1054700005F03DFC06E0284605F039FC8021284671
:1054800005F037FC4021284605F033FC082128466A
:1054900005F02FFC3146204605F02BFC394620460E
:1054A00005F027FC0821204605F023FC8AE70000D0
:1054B000002002400018024010B514F095FCBDE831
:1054C0001040FFF7EDBC000001A02FF09BFDFEE7B0
:1054D0000A44656275674D6F6E5F48616E646C6506
:1054E0007200000001B5009800EB80004000401EF3
:1054F000FDD208BD4FF47A714843084910B50B6AD4
:105500004C6AC01844F100028862CA620C6A486A98
:105510008A6ACB6AA21A9841F8D310BD28000020ED
:10552000084910B50A6A4C6A101844F100048862F0
:10553000CC62086A4C6A8A6ACB6A801A9C41F8D3AA
:1055400010BD0000280000202DE9F04F3049DFF8A1
:10555000C490314E31F810008DB0401E1FFA80F813
:10556000D9F800302D492EA032682FF04BFD41466E
:105570002EA02FF047FD00252C462F46DFF8BCB0AB
:10558000B24628E000261EE02D48C8EB481230F94C
:105590001510C2EB08200BEB001222F81510294A57
:1055A00002EB001232F91520914206DB264A02EB8B
:1055B000001030F91500814200DD641C23A02FF09B
:1055C00021FD6D1C761CD9F800008642DCD321A099
:1055D0002FF018FD7F1CDAF800008742D2D31DA0FF
:1055E0002FF010FD21461CA02FF00CFD22461EA11D
:1055F00068462BF085F868460EF092FB1E4921F8AC
:1056000018401CB100200DB0BDE8F08F0120FAE772
:10561000687351D06C04002068040020EEC60508B1
:1056200025732825642C202564290A0070616E6585
:105630006C5F636E74203A2025640A00A8055FD071
:1056400090BC00209C8659D0BC455CD02534642099
:10565000000000000A0000006572725F636E742033
:105660003A2025640A0000006572726F72206E6F26
:105670006465203A20256400084367D02DE9F04195
:1056800080461C4800248EB007681B48224647F617
:10569000F8712546164ED0F800C00EE0002309E050
:1056A00036F91400904200DD0246884200DA0146D5
:1056B0005B1C641CBB42F3D36D1C6545EED3541ACE
:1056C00021460EA02FF09EFC224610A168462BF02A
:1056D00017F868460EF024FB0D4931F81800A04277
:1056E00003DA00200EB0BDE8F0810120FAE70000E7
:1056F00090BC00206C040020680400204D4158201C
:105700002D204D494E203D2025640A0025640000CF
:10571000B85F51D02DE9F0432A49DFF8AC808DB055
:1057200031F81000D8F80030401E87B227482849C9
:10573000026828A02FF066FC394629A02FF062FCF1
:1057400000252C462E46DFF8A8901EE0294830F9A7
:105750001610C7EB4710C0EB072009EB001222F828
:105760001510254A02EB001232F91520914206DB92
:10577000224A02EB001030F91500814200DD641C62
:105780001FA02FF03FFC6D1C761CD8F8000086424D
:10579000DCD31DA02FF036FC21461CA02FF032FCDC
:1057A00022461EA168462AF0ABFF68460EF0B8FA02
:1057B0001E4820F817401CB100200DB0BDE8F08352
:1057C0000120FAE7687351D06C04002068040020BF
:1057D0000BC7050825732825642C202564290A0099
:1057E00070616E656C5F636E74203A2025640A00F8
:1057F000A8055FD07CD000209C8659D0BC455CD0E9
:1058000025346420000000000A0000006572725F09
:10581000636E74203A2025640A0000006572726F7E
:1058200072206E6F6465203A20256400084367D0BB
:105830002DE9F0432A49DFF8B0808DB031F810002F
:105840002A49401E87B22748D8F80020036828A0BC
:105850002FF0D8FB394629A02FF0D4FB00252C4689
:105860002E46DFF8A8901EE0294830F91610C7EB45
:105870004710C0EB072009EB001222F81510254A4B
:1058800002EB001232F91520914206DB224A02EBAC
:10589000001030F91500814200DD641C1FA02FF0BC
:1058A000B1FB6D1C761CD8F800008642DCD31DA02D
:1058B0002FF0A8FB21461CA02FF0A4FB22461EA11E
:1058C00068462AF01DFF68460EF02AFA1E4820F8A6
:1058D00017401CB100200DB0BDE8F0830120FAE7AD
:1058E000687351D06C04002068040020FBC60508D2
:1058F00025732825642C202564290A0070616E65B3
:105900006C5F636E74203A2025640A00A8055FD09E
:1059100018D000209C8659D0BC455CD0253464202A
:10592000000000000A0000006572725F636E742060
:105930003A2025640A0000006572726F72206E6F53
:105940006465203A20256400084367D02DE9F04FB4
:105950002849DFF8A4808DB031F81000D8F8003065
:10596000401E87B225482649026826A02FF04AFB30
:10597000394627A02FF046FB002425462646DFF8AF
:10598000A0B0C24620E0274830F91610C7EB4710F8
:10599000C0EB07280BEB081923A029F814102FF0EF
:1059A00031FB234A39F9141002EB081030F91400C6
:1059B000814206DB1F4A02EB081030F914008142D5
:1059C00000DD6D1C641C761CDAF800008642DAD318
:1059D00019A02FF017FB2A4618A168462AF090FE5E
:1059E00068460EF09DF9194820F817500DB00120B7
:1059F000BDE8F08F687351D06C040020680400206B
:105A00002BC7050825732825642C202564290A0046
:105A100070616E656C5F636E74203A2025640A00C5
:105A2000A8055FD044D10020253464200000000088
:105A30009C8659D0BC455CD00A0000006572726F2C
:105A400072206E6F6465203A20256400084367D099
:105A50002DE9F04F2849DFF8A8808DB031F810000B
:105A60002849401E87B22548D8F80020036826A0A0
:105A70002FF0C8FA394627A02FF0C4FA0024254693
:105A80002646DFF8A0B0C24620E0274830F91610BD
:105A9000C7EB4710C0EB07280BEB081923A029F828
:105AA00014102FF0AFFA234A39F9141002EB081042
:105AB00030F91400814206DB1F4A02EB081030F96E
:105AC0001400814200DD6D1C641C761CDAF80000B5
:105AD0008642DAD319A02FF095FA2A4618A1684613
